ARM GAS  C:\Users\savajon\AppData\Local\Temp\cciKJ3U7.s 			page 1


   1              		.syntax unified
   2              		.cpu cortex-m3
   3              		.fpu softvfp
   4              		.eabi_attribute 20, 1
   5              		.eabi_attribute 21, 1
   6              		.eabi_attribute 23, 3
   7              		.eabi_attribute 24, 1
   8              		.eabi_attribute 25, 1
   9              		.eabi_attribute 26, 1
  10              		.eabi_attribute 30, 1
  11              		.eabi_attribute 34, 1
  12              		.eabi_attribute 18, 4
  13              		.thumb
  14              		.syntax unified
  15              		.file	"cyfitter_cfg.c"
  16              		.text
  17              	.Ltext0:
  18              		.cfi_sections	.debug_frame
  19              		.section	.text.CyClockStartupError,"ax",%progbits
  20              		.align	2
  21              		.thumb
  22              		.thumb_func
  23              		.type	CyClockStartupError, %function
  24              	CyClockStartupError:
  25              	.LFB3:
  26              		.file 1 "Generated_Source\\PSoC5\\cyfitter_cfg.c"
   1:Generated_Source\PSoC5/cyfitter_cfg.c **** 
   2:Generated_Source\PSoC5/cyfitter_cfg.c **** /*******************************************************************************
   3:Generated_Source\PSoC5/cyfitter_cfg.c **** * File Name: cyfitter_cfg.c
   4:Generated_Source\PSoC5/cyfitter_cfg.c **** * 
   5:Generated_Source\PSoC5/cyfitter_cfg.c **** * PSoC Creator  4.2
   6:Generated_Source\PSoC5/cyfitter_cfg.c **** *
   7:Generated_Source\PSoC5/cyfitter_cfg.c **** * Description:
   8:Generated_Source\PSoC5/cyfitter_cfg.c **** * This file contains device initialization code.
   9:Generated_Source\PSoC5/cyfitter_cfg.c **** * Except for the user defined sections in CyClockStartupError(), this file should not be modified.
  10:Generated_Source\PSoC5/cyfitter_cfg.c **** * This file is automatically generated by PSoC Creator.
  11:Generated_Source\PSoC5/cyfitter_cfg.c **** *
  12:Generated_Source\PSoC5/cyfitter_cfg.c **** ********************************************************************************
  13:Generated_Source\PSoC5/cyfitter_cfg.c **** * Copyright (c) 2007-2018 Cypress Semiconductor.  All rights reserved.
  14:Generated_Source\PSoC5/cyfitter_cfg.c **** * You may use this file only in accordance with the license, terms, conditions, 
  15:Generated_Source\PSoC5/cyfitter_cfg.c **** * disclaimers, and limitations in the end user license agreement accompanying 
  16:Generated_Source\PSoC5/cyfitter_cfg.c **** * the software package with which this file was provided.
  17:Generated_Source\PSoC5/cyfitter_cfg.c **** ********************************************************************************/
  18:Generated_Source\PSoC5/cyfitter_cfg.c **** 
  19:Generated_Source\PSoC5/cyfitter_cfg.c **** #include <string.h>
  20:Generated_Source\PSoC5/cyfitter_cfg.c **** #include "cytypes.h"
  21:Generated_Source\PSoC5/cyfitter_cfg.c **** #include "cydevice_trm.h"
  22:Generated_Source\PSoC5/cyfitter_cfg.c **** #include "cyfitter.h"
  23:Generated_Source\PSoC5/cyfitter_cfg.c **** #include "CyLib.h"
  24:Generated_Source\PSoC5/cyfitter_cfg.c **** #include "cyfitter_cfg.h"
  25:Generated_Source\PSoC5/cyfitter_cfg.c **** #include "cyapicallbacks.h"
  26:Generated_Source\PSoC5/cyfitter_cfg.c **** 
  27:Generated_Source\PSoC5/cyfitter_cfg.c **** #define CY_NEED_CYCLOCKSTARTUPERROR 1
  28:Generated_Source\PSoC5/cyfitter_cfg.c **** 
  29:Generated_Source\PSoC5/cyfitter_cfg.c **** 
  30:Generated_Source\PSoC5/cyfitter_cfg.c **** #if defined(__GNUC__) || defined(__ARMCC_VERSION)
  31:Generated_Source\PSoC5/cyfitter_cfg.c ****     #define CYPACKED 
ARM GAS  C:\Users\savajon\AppData\Local\Temp\cciKJ3U7.s 			page 2


  32:Generated_Source\PSoC5/cyfitter_cfg.c ****     #define CYPACKED_ATTR __attribute__ ((packed))
  33:Generated_Source\PSoC5/cyfitter_cfg.c ****     #define CYALIGNED __attribute__ ((aligned))
  34:Generated_Source\PSoC5/cyfitter_cfg.c ****     #define CY_CFG_UNUSED __attribute__ ((unused))
  35:Generated_Source\PSoC5/cyfitter_cfg.c ****     #ifndef CY_CFG_SECTION
  36:Generated_Source\PSoC5/cyfitter_cfg.c ****         #define CY_CFG_SECTION __attribute__ ((section(".psocinit")))
  37:Generated_Source\PSoC5/cyfitter_cfg.c ****     #endif
  38:Generated_Source\PSoC5/cyfitter_cfg.c ****     
  39:Generated_Source\PSoC5/cyfitter_cfg.c ****     #if defined(__ARMCC_VERSION)
  40:Generated_Source\PSoC5/cyfitter_cfg.c ****         #define CY_CFG_MEMORY_BARRIER() __memory_changed()
  41:Generated_Source\PSoC5/cyfitter_cfg.c ****     #else
  42:Generated_Source\PSoC5/cyfitter_cfg.c ****         #define CY_CFG_MEMORY_BARRIER() __sync_synchronize()
  43:Generated_Source\PSoC5/cyfitter_cfg.c ****     #endif
  44:Generated_Source\PSoC5/cyfitter_cfg.c ****     
  45:Generated_Source\PSoC5/cyfitter_cfg.c **** #elif defined(__ICCARM__)
  46:Generated_Source\PSoC5/cyfitter_cfg.c ****     #include <intrinsics.h>
  47:Generated_Source\PSoC5/cyfitter_cfg.c **** 
  48:Generated_Source\PSoC5/cyfitter_cfg.c ****     #define CYPACKED __packed
  49:Generated_Source\PSoC5/cyfitter_cfg.c ****     #define CYPACKED_ATTR 
  50:Generated_Source\PSoC5/cyfitter_cfg.c ****     #define CYALIGNED _Pragma("data_alignment=4")
  51:Generated_Source\PSoC5/cyfitter_cfg.c ****     #define CY_CFG_UNUSED _Pragma("diag_suppress=Pe177")
  52:Generated_Source\PSoC5/cyfitter_cfg.c ****     #define CY_CFG_SECTION _Pragma("location=\".psocinit\"")
  53:Generated_Source\PSoC5/cyfitter_cfg.c ****     
  54:Generated_Source\PSoC5/cyfitter_cfg.c ****     #define CY_CFG_MEMORY_BARRIER() __DMB()
  55:Generated_Source\PSoC5/cyfitter_cfg.c ****     
  56:Generated_Source\PSoC5/cyfitter_cfg.c **** #else
  57:Generated_Source\PSoC5/cyfitter_cfg.c ****     #error Unsupported toolchain
  58:Generated_Source\PSoC5/cyfitter_cfg.c **** #endif
  59:Generated_Source\PSoC5/cyfitter_cfg.c **** 
  60:Generated_Source\PSoC5/cyfitter_cfg.c **** #ifndef CYCODE
  61:Generated_Source\PSoC5/cyfitter_cfg.c ****     #define CYCODE
  62:Generated_Source\PSoC5/cyfitter_cfg.c **** #endif
  63:Generated_Source\PSoC5/cyfitter_cfg.c **** #ifndef CYDATA
  64:Generated_Source\PSoC5/cyfitter_cfg.c ****     #define CYDATA
  65:Generated_Source\PSoC5/cyfitter_cfg.c **** #endif
  66:Generated_Source\PSoC5/cyfitter_cfg.c **** #ifndef CYFAR
  67:Generated_Source\PSoC5/cyfitter_cfg.c ****     #define CYFAR
  68:Generated_Source\PSoC5/cyfitter_cfg.c **** #endif
  69:Generated_Source\PSoC5/cyfitter_cfg.c **** #ifndef CYXDATA
  70:Generated_Source\PSoC5/cyfitter_cfg.c ****     #define CYXDATA
  71:Generated_Source\PSoC5/cyfitter_cfg.c **** #endif
  72:Generated_Source\PSoC5/cyfitter_cfg.c **** 
  73:Generated_Source\PSoC5/cyfitter_cfg.c **** 
  74:Generated_Source\PSoC5/cyfitter_cfg.c **** CY_CFG_UNUSED
  75:Generated_Source\PSoC5/cyfitter_cfg.c **** static void CYMEMZERO(void *s, size_t n);
  76:Generated_Source\PSoC5/cyfitter_cfg.c **** CY_CFG_UNUSED
  77:Generated_Source\PSoC5/cyfitter_cfg.c **** static void CYMEMZERO(void *s, size_t n)
  78:Generated_Source\PSoC5/cyfitter_cfg.c **** {
  79:Generated_Source\PSoC5/cyfitter_cfg.c **** 	(void)memset(s, 0, n);
  80:Generated_Source\PSoC5/cyfitter_cfg.c **** }
  81:Generated_Source\PSoC5/cyfitter_cfg.c **** CY_CFG_UNUSED
  82:Generated_Source\PSoC5/cyfitter_cfg.c **** static void CYCONFIGCPY(void *dest, const void *src, size_t n);
  83:Generated_Source\PSoC5/cyfitter_cfg.c **** CY_CFG_UNUSED
  84:Generated_Source\PSoC5/cyfitter_cfg.c **** static void CYCONFIGCPY(void *dest, const void *src, size_t n)
  85:Generated_Source\PSoC5/cyfitter_cfg.c **** {
  86:Generated_Source\PSoC5/cyfitter_cfg.c **** 	(void)memcpy(dest, src, n);
  87:Generated_Source\PSoC5/cyfitter_cfg.c **** }
  88:Generated_Source\PSoC5/cyfitter_cfg.c **** CY_CFG_UNUSED
ARM GAS  C:\Users\savajon\AppData\Local\Temp\cciKJ3U7.s 			page 3


  89:Generated_Source\PSoC5/cyfitter_cfg.c **** static void CYCONFIGCPYCODE(void *dest, const void *src, size_t n);
  90:Generated_Source\PSoC5/cyfitter_cfg.c **** CY_CFG_UNUSED
  91:Generated_Source\PSoC5/cyfitter_cfg.c **** static void CYCONFIGCPYCODE(void *dest, const void *src, size_t n)
  92:Generated_Source\PSoC5/cyfitter_cfg.c **** {
  93:Generated_Source\PSoC5/cyfitter_cfg.c **** 	(void)memcpy(dest, src, n);
  94:Generated_Source\PSoC5/cyfitter_cfg.c **** }
  95:Generated_Source\PSoC5/cyfitter_cfg.c **** 
  96:Generated_Source\PSoC5/cyfitter_cfg.c **** 
  97:Generated_Source\PSoC5/cyfitter_cfg.c **** 
  98:Generated_Source\PSoC5/cyfitter_cfg.c **** 
  99:Generated_Source\PSoC5/cyfitter_cfg.c **** /* Clock startup error codes                                                   */
 100:Generated_Source\PSoC5/cyfitter_cfg.c **** #define CYCLOCKSTART_NO_ERROR    0u
 101:Generated_Source\PSoC5/cyfitter_cfg.c **** #define CYCLOCKSTART_XTAL_ERROR  1u
 102:Generated_Source\PSoC5/cyfitter_cfg.c **** #define CYCLOCKSTART_32KHZ_ERROR 2u
 103:Generated_Source\PSoC5/cyfitter_cfg.c **** #define CYCLOCKSTART_PLL_ERROR   3u
 104:Generated_Source\PSoC5/cyfitter_cfg.c **** #define CYCLOCKSTART_FLL_ERROR   4u
 105:Generated_Source\PSoC5/cyfitter_cfg.c **** #define CYCLOCKSTART_WCO_ERROR   5u
 106:Generated_Source\PSoC5/cyfitter_cfg.c **** 
 107:Generated_Source\PSoC5/cyfitter_cfg.c **** 
 108:Generated_Source\PSoC5/cyfitter_cfg.c **** #ifdef CY_NEED_CYCLOCKSTARTUPERROR
 109:Generated_Source\PSoC5/cyfitter_cfg.c **** /*******************************************************************************
 110:Generated_Source\PSoC5/cyfitter_cfg.c **** * Function Name: CyClockStartupError
 111:Generated_Source\PSoC5/cyfitter_cfg.c **** ********************************************************************************
 112:Generated_Source\PSoC5/cyfitter_cfg.c **** * Summary:
 113:Generated_Source\PSoC5/cyfitter_cfg.c **** *  If an error is encountered during clock configuration (crystal startup error,
 114:Generated_Source\PSoC5/cyfitter_cfg.c **** *  PLL lock error, etc.), the system will end up here.  Unless reimplemented by
 115:Generated_Source\PSoC5/cyfitter_cfg.c **** *  the customer, this function will stop in an infinite loop.
 116:Generated_Source\PSoC5/cyfitter_cfg.c **** *
 117:Generated_Source\PSoC5/cyfitter_cfg.c **** * Parameters:
 118:Generated_Source\PSoC5/cyfitter_cfg.c **** *   void
 119:Generated_Source\PSoC5/cyfitter_cfg.c **** *
 120:Generated_Source\PSoC5/cyfitter_cfg.c **** * Return:
 121:Generated_Source\PSoC5/cyfitter_cfg.c **** *   void
 122:Generated_Source\PSoC5/cyfitter_cfg.c **** *
 123:Generated_Source\PSoC5/cyfitter_cfg.c **** *******************************************************************************/
 124:Generated_Source\PSoC5/cyfitter_cfg.c **** CY_CFG_UNUSED
 125:Generated_Source\PSoC5/cyfitter_cfg.c **** static void CyClockStartupError(uint8 errorCode);
 126:Generated_Source\PSoC5/cyfitter_cfg.c **** CY_CFG_UNUSED
 127:Generated_Source\PSoC5/cyfitter_cfg.c **** static void CyClockStartupError(uint8 errorCode)
 128:Generated_Source\PSoC5/cyfitter_cfg.c **** {
  27              		.loc 1 128 0
  28              		.cfi_startproc
  29              		@ Volatile: function does not return.
  30              		@ args = 0, pretend = 0, frame = 0
  31              		@ frame_needed = 0, uses_anonymous_args = 0
  32              		@ link register save eliminated.
  33              	.LVL0:
  34              	.L2:
  35 0000 FEE7     		b	.L2
  36              		.cfi_endproc
  37              	.LFE3:
  38              		.size	CyClockStartupError, .-CyClockStartupError
  39 0002 00BF     		.section	.text.cfg_write_bytes32,"ax",%progbits
  40              		.align	2
  41              		.thumb
  42              		.thumb_func
  43              		.type	cfg_write_bytes32, %function
ARM GAS  C:\Users\savajon\AppData\Local\Temp\cciKJ3U7.s 			page 4


  44              	cfg_write_bytes32:
  45              	.LFB4:
 129:Generated_Source\PSoC5/cyfitter_cfg.c ****     /* To remove the compiler warning if errorCode not used.                */
 130:Generated_Source\PSoC5/cyfitter_cfg.c ****     errorCode = errorCode;
 131:Generated_Source\PSoC5/cyfitter_cfg.c **** 
 132:Generated_Source\PSoC5/cyfitter_cfg.c ****     /* If we have a clock startup error (bad MHz crystal, PLL lock, etc.),  */
 133:Generated_Source\PSoC5/cyfitter_cfg.c ****     /* we will end up here to allow the customer to implement something to  */
 134:Generated_Source\PSoC5/cyfitter_cfg.c ****     /* deal with the clock condition.                                       */
 135:Generated_Source\PSoC5/cyfitter_cfg.c **** 
 136:Generated_Source\PSoC5/cyfitter_cfg.c **** #ifdef CY_CFG_CLOCK_STARTUP_ERROR_CALLBACK
 137:Generated_Source\PSoC5/cyfitter_cfg.c ****     CY_CFG_Clock_Startup_ErrorCallback();
 138:Generated_Source\PSoC5/cyfitter_cfg.c **** #else
 139:Generated_Source\PSoC5/cyfitter_cfg.c ****     /*  If not using CY_CFG_CLOCK_STARTUP_ERROR_CALLBACK, place your clock startup code here. */
 140:Generated_Source\PSoC5/cyfitter_cfg.c ****     /* `#START CyClockStartupError` */
 141:Generated_Source\PSoC5/cyfitter_cfg.c **** 
 142:Generated_Source\PSoC5/cyfitter_cfg.c **** 
 143:Generated_Source\PSoC5/cyfitter_cfg.c **** 
 144:Generated_Source\PSoC5/cyfitter_cfg.c ****     /* `#END` */
 145:Generated_Source\PSoC5/cyfitter_cfg.c **** 
 146:Generated_Source\PSoC5/cyfitter_cfg.c ****     while(1) {}
 147:Generated_Source\PSoC5/cyfitter_cfg.c **** #endif /* CY_CFG_CLOCK_STARTUP_ERROR_CALLBACK */
 148:Generated_Source\PSoC5/cyfitter_cfg.c **** }
 149:Generated_Source\PSoC5/cyfitter_cfg.c **** #endif
 150:Generated_Source\PSoC5/cyfitter_cfg.c **** 
 151:Generated_Source\PSoC5/cyfitter_cfg.c **** #define CY_CFG_BASE_ADDR_COUNT 35u
 152:Generated_Source\PSoC5/cyfitter_cfg.c **** CYPACKED typedef struct
 153:Generated_Source\PSoC5/cyfitter_cfg.c **** {
 154:Generated_Source\PSoC5/cyfitter_cfg.c **** 	uint8 offset;
 155:Generated_Source\PSoC5/cyfitter_cfg.c **** 	uint8 value;
 156:Generated_Source\PSoC5/cyfitter_cfg.c **** } CYPACKED_ATTR cy_cfg_addrvalue_t;
 157:Generated_Source\PSoC5/cyfitter_cfg.c **** 
 158:Generated_Source\PSoC5/cyfitter_cfg.c **** #define cy_cfg_addr_table ((const uint32 CYFAR *)0x48000000u)
 159:Generated_Source\PSoC5/cyfitter_cfg.c **** #define cy_cfg_data_table ((const cy_cfg_addrvalue_t CYFAR *)0x4800008Cu)
 160:Generated_Source\PSoC5/cyfitter_cfg.c **** 
 161:Generated_Source\PSoC5/cyfitter_cfg.c **** /* UDB_0_0_1_CONFIG Address: CYDEV_UCFG_B1_P5_U1_BASE Size (bytes): 128 */
 162:Generated_Source\PSoC5/cyfitter_cfg.c **** #define BS_UDB_0_0_1_CONFIG_VAL ((const uint8 CYFAR *)0x48000814u)
 163:Generated_Source\PSoC5/cyfitter_cfg.c **** 
 164:Generated_Source\PSoC5/cyfitter_cfg.c **** /* IOPINS0_0 Address: CYREG_PRT0_DM0 Size (bytes): 8 */
 165:Generated_Source\PSoC5/cyfitter_cfg.c **** #define BS_IOPINS0_0_VAL ((const uint8 CYFAR *)0x48000894u)
 166:Generated_Source\PSoC5/cyfitter_cfg.c **** 
 167:Generated_Source\PSoC5/cyfitter_cfg.c **** /* IOPINS0_7 Address: CYREG_PRT12_DR Size (bytes): 10 */
 168:Generated_Source\PSoC5/cyfitter_cfg.c **** #define BS_IOPINS0_7_VAL ((const uint8 CYFAR *)0x4800089Cu)
 169:Generated_Source\PSoC5/cyfitter_cfg.c **** 
 170:Generated_Source\PSoC5/cyfitter_cfg.c **** /* IOPINS0_8 Address: CYREG_PRT15_DM0 Size (bytes): 8 */
 171:Generated_Source\PSoC5/cyfitter_cfg.c **** #define BS_IOPINS0_8_VAL ((const uint8 CYFAR *)0x480008A8u)
 172:Generated_Source\PSoC5/cyfitter_cfg.c **** 
 173:Generated_Source\PSoC5/cyfitter_cfg.c **** /* IOPINS0_1 Address: CYREG_PRT1_DM0 Size (bytes): 8 */
 174:Generated_Source\PSoC5/cyfitter_cfg.c **** #define BS_IOPINS0_1_VAL ((const uint8 CYFAR *)0x480008B0u)
 175:Generated_Source\PSoC5/cyfitter_cfg.c **** 
 176:Generated_Source\PSoC5/cyfitter_cfg.c **** /* IOPINS0_2 Address: CYREG_PRT2_DM0 Size (bytes): 8 */
 177:Generated_Source\PSoC5/cyfitter_cfg.c **** #define BS_IOPINS0_2_VAL ((const uint8 CYFAR *)0x480008B8u)
 178:Generated_Source\PSoC5/cyfitter_cfg.c **** 
 179:Generated_Source\PSoC5/cyfitter_cfg.c **** 
 180:Generated_Source\PSoC5/cyfitter_cfg.c **** /*******************************************************************************
 181:Generated_Source\PSoC5/cyfitter_cfg.c **** * Function Name: cfg_write_bytes32
 182:Generated_Source\PSoC5/cyfitter_cfg.c **** ********************************************************************************
 183:Generated_Source\PSoC5/cyfitter_cfg.c **** * Summary:
ARM GAS  C:\Users\savajon\AppData\Local\Temp\cciKJ3U7.s 			page 5


 184:Generated_Source\PSoC5/cyfitter_cfg.c **** *  This function is used for setting up the chip configuration areas that
 185:Generated_Source\PSoC5/cyfitter_cfg.c **** *  contain relatively sparse data.
 186:Generated_Source\PSoC5/cyfitter_cfg.c **** *
 187:Generated_Source\PSoC5/cyfitter_cfg.c **** * Parameters:
 188:Generated_Source\PSoC5/cyfitter_cfg.c **** *   void
 189:Generated_Source\PSoC5/cyfitter_cfg.c **** *
 190:Generated_Source\PSoC5/cyfitter_cfg.c **** * Return:
 191:Generated_Source\PSoC5/cyfitter_cfg.c **** *   void
 192:Generated_Source\PSoC5/cyfitter_cfg.c **** *
 193:Generated_Source\PSoC5/cyfitter_cfg.c **** *******************************************************************************/
 194:Generated_Source\PSoC5/cyfitter_cfg.c **** static void cfg_write_bytes32(const uint32 addr_table[], const cy_cfg_addrvalue_t data_table[]);
 195:Generated_Source\PSoC5/cyfitter_cfg.c **** static void cfg_write_bytes32(const uint32 addr_table[], const cy_cfg_addrvalue_t data_table[])
 196:Generated_Source\PSoC5/cyfitter_cfg.c **** {
  46              		.loc 1 196 0
  47              		.cfi_startproc
  48              		@ args = 0, pretend = 0, frame = 0
  49              		@ frame_needed = 0, uses_anonymous_args = 0
  50              		@ link register save eliminated.
  51              	.LVL1:
  52              		.loc 1 196 0
  53 0000 F0B4     		push	{r4, r5, r6, r7}
  54              		.cfi_def_cfa_offset 16
  55              		.cfi_offset 4, -16
  56              		.cfi_offset 5, -12
  57              		.cfi_offset 6, -8
  58              		.cfi_offset 7, -4
  59              	.LVL2:
 197:Generated_Source\PSoC5/cyfitter_cfg.c **** 	/* For 32-bit little-endian architectures */
 198:Generated_Source\PSoC5/cyfitter_cfg.c **** 	uint32 i, j = 0u;
  60              		.loc 1 198 0
  61 0002 0022     		movs	r2, #0
 199:Generated_Source\PSoC5/cyfitter_cfg.c **** 	for (i = 0u; i < CY_CFG_BASE_ADDR_COUNT; i++)
  62              		.loc 1 199 0
  63 0004 1746     		mov	r7, r2
  64 0006 11E0     		b	.L4
  65              	.LVL3:
  66              	.L7:
  67              	.LBB2:
 200:Generated_Source\PSoC5/cyfitter_cfg.c **** 	{
 201:Generated_Source\PSoC5/cyfitter_cfg.c **** 		uint32 baseAddr = addr_table[i];
  68              		.loc 1 201 0
  69 0008 50F82760 		ldr	r6, [r0, r7, lsl #2]
  70              	.LVL4:
 202:Generated_Source\PSoC5/cyfitter_cfg.c **** 		uint8 count = (uint8)baseAddr;
  71              		.loc 1 202 0
  72 000c F3B2     		uxtb	r3, r6
  73              	.LVL5:
 203:Generated_Source\PSoC5/cyfitter_cfg.c **** 		baseAddr &= 0xFFFFFF00u;
  74              		.loc 1 203 0
  75 000e 26F0FF06 		bic	r6, r6, #255
  76              	.LVL6:
 204:Generated_Source\PSoC5/cyfitter_cfg.c **** 		while (count != 0u)
  77              		.loc 1 204 0
  78 0012 08E0     		b	.L5
  79              	.L6:
 205:Generated_Source\PSoC5/cyfitter_cfg.c **** 		{
 206:Generated_Source\PSoC5/cyfitter_cfg.c **** 			CY_SET_REG8((void *)(baseAddr + data_table[j].offset), data_table[j].value);
ARM GAS  C:\Users\savajon\AppData\Local\Temp\cciKJ3U7.s 			page 6


  80              		.loc 1 206 0
  81 0014 01EB4205 		add	r5, r1, r2, lsl #1
  82 0018 11F81240 		ldrb	r4, [r1, r2, lsl #1]	@ zero_extendqisi2
  83 001c 6D78     		ldrb	r5, [r5, #1]	@ zero_extendqisi2
  84 001e A555     		strb	r5, [r4, r6]
 207:Generated_Source\PSoC5/cyfitter_cfg.c **** 			j++;
  85              		.loc 1 207 0
  86 0020 0132     		adds	r2, r2, #1
  87              	.LVL7:
 208:Generated_Source\PSoC5/cyfitter_cfg.c **** 			count--;
  88              		.loc 1 208 0
  89 0022 013B     		subs	r3, r3, #1
  90              	.LVL8:
  91 0024 DBB2     		uxtb	r3, r3
  92              	.LVL9:
  93              	.L5:
 204:Generated_Source\PSoC5/cyfitter_cfg.c **** 		{
  94              		.loc 1 204 0
  95 0026 002B     		cmp	r3, #0
  96 0028 F4D1     		bne	.L6
  97              	.LBE2:
 199:Generated_Source\PSoC5/cyfitter_cfg.c **** 	{
  98              		.loc 1 199 0 discriminator 2
  99 002a 0137     		adds	r7, r7, #1
 100              	.LVL10:
 101              	.L4:
 199:Generated_Source\PSoC5/cyfitter_cfg.c **** 	{
 102              		.loc 1 199 0 is_stmt 0 discriminator 1
 103 002c 222F     		cmp	r7, #34
 104 002e EBD9     		bls	.L7
 209:Generated_Source\PSoC5/cyfitter_cfg.c **** 		}
 210:Generated_Source\PSoC5/cyfitter_cfg.c **** 	}
 211:Generated_Source\PSoC5/cyfitter_cfg.c **** }
 105              		.loc 1 211 0 is_stmt 1
 106 0030 F0BC     		pop	{r4, r5, r6, r7}
 107              		.cfi_restore 7
 108              		.cfi_restore 6
 109              		.cfi_restore 5
 110              		.cfi_restore 4
 111              		.cfi_def_cfa_offset 0
 112              	.LVL11:
 113 0032 7047     		bx	lr
 114              		.cfi_endproc
 115              	.LFE4:
 116              		.size	cfg_write_bytes32, .-cfg_write_bytes32
 117              		.section	.text.AnalogSetDefault,"ax",%progbits
 118              		.align	2
 119              		.thumb
 120              		.thumb_func
 121              		.type	AnalogSetDefault, %function
 122              	AnalogSetDefault:
 123              	.LFB6:
 212:Generated_Source\PSoC5/cyfitter_cfg.c **** 
 213:Generated_Source\PSoC5/cyfitter_cfg.c **** /*******************************************************************************
 214:Generated_Source\PSoC5/cyfitter_cfg.c **** * Function Name: ClockSetup
 215:Generated_Source\PSoC5/cyfitter_cfg.c **** ********************************************************************************
 216:Generated_Source\PSoC5/cyfitter_cfg.c **** *
ARM GAS  C:\Users\savajon\AppData\Local\Temp\cciKJ3U7.s 			page 7


 217:Generated_Source\PSoC5/cyfitter_cfg.c **** * Summary:
 218:Generated_Source\PSoC5/cyfitter_cfg.c **** *  Performs the initialization of all of the clocks in the device based on the
 219:Generated_Source\PSoC5/cyfitter_cfg.c **** *  settings in the Clock tab of the DWR.  This includes enabling the requested
 220:Generated_Source\PSoC5/cyfitter_cfg.c **** *  clocks and setting the necessary dividers to produce the desired frequency. 
 221:Generated_Source\PSoC5/cyfitter_cfg.c **** *
 222:Generated_Source\PSoC5/cyfitter_cfg.c **** * Parameters:
 223:Generated_Source\PSoC5/cyfitter_cfg.c **** *  void
 224:Generated_Source\PSoC5/cyfitter_cfg.c **** *
 225:Generated_Source\PSoC5/cyfitter_cfg.c **** * Return:
 226:Generated_Source\PSoC5/cyfitter_cfg.c **** *  void
 227:Generated_Source\PSoC5/cyfitter_cfg.c **** *
 228:Generated_Source\PSoC5/cyfitter_cfg.c **** *******************************************************************************/
 229:Generated_Source\PSoC5/cyfitter_cfg.c **** static void ClockSetup(void);
 230:Generated_Source\PSoC5/cyfitter_cfg.c **** static void ClockSetup(void)
 231:Generated_Source\PSoC5/cyfitter_cfg.c **** {
 232:Generated_Source\PSoC5/cyfitter_cfg.c **** 	uint32 timeout;
 233:Generated_Source\PSoC5/cyfitter_cfg.c **** 	uint8 pllLock;
 234:Generated_Source\PSoC5/cyfitter_cfg.c **** 
 235:Generated_Source\PSoC5/cyfitter_cfg.c **** 
 236:Generated_Source\PSoC5/cyfitter_cfg.c **** 	/* Configure Digital Clocks based on settings from Clock DWR */
 237:Generated_Source\PSoC5/cyfitter_cfg.c **** 	CY_SET_XTND_REG16((void CYFAR *)(CYREG_CLKDIST_DCFG0_CFG0), 0x0001u);
 238:Generated_Source\PSoC5/cyfitter_cfg.c **** 	CY_SET_XTND_REG8((void CYFAR *)(CYREG_CLKDIST_DCFG0_CFG0 + 0x2u), 0x18u);
 239:Generated_Source\PSoC5/cyfitter_cfg.c **** 	CY_SET_XTND_REG16((void CYFAR *)(CYREG_CLKDIST_DCFG1_CFG0), 0x0017u);
 240:Generated_Source\PSoC5/cyfitter_cfg.c **** 	CY_SET_XTND_REG8((void CYFAR *)(CYREG_CLKDIST_DCFG1_CFG0 + 0x2u), 0x18u);
 241:Generated_Source\PSoC5/cyfitter_cfg.c **** 	CY_SET_XTND_REG16((void CYFAR *)(CYREG_CLKDIST_DCFG2_CFG0), 0x0033u);
 242:Generated_Source\PSoC5/cyfitter_cfg.c **** 	CY_SET_XTND_REG8((void CYFAR *)(CYREG_CLKDIST_DCFG2_CFG0 + 0x2u), 0x18u);
 243:Generated_Source\PSoC5/cyfitter_cfg.c **** 	CY_SET_XTND_REG16((void CYFAR *)(CYREG_CLKDIST_DCFG3_CFG0), 0x0077u);
 244:Generated_Source\PSoC5/cyfitter_cfg.c **** 	CY_SET_XTND_REG8((void CYFAR *)(CYREG_CLKDIST_DCFG3_CFG0 + 0x2u), 0x18u);
 245:Generated_Source\PSoC5/cyfitter_cfg.c **** 	CY_SET_XTND_REG16((void CYFAR *)(CYREG_CLKDIST_DCFG4_CFG0), 0x095Fu);
 246:Generated_Source\PSoC5/cyfitter_cfg.c **** 	CY_SET_XTND_REG8((void CYFAR *)(CYREG_CLKDIST_DCFG4_CFG0 + 0x2u), 0x18u);
 247:Generated_Source\PSoC5/cyfitter_cfg.c **** 
 248:Generated_Source\PSoC5/cyfitter_cfg.c **** 	/* Configure ILO based on settings from Clock DWR */
 249:Generated_Source\PSoC5/cyfitter_cfg.c **** 	CY_SET_XTND_REG8((void CYFAR *)(CYREG_SLOWCLK_ILO_CR0), 0x02u);
 250:Generated_Source\PSoC5/cyfitter_cfg.c **** 	CY_SET_XTND_REG8((void CYFAR *)(CYREG_CLKDIST_CR), 0x08u);
 251:Generated_Source\PSoC5/cyfitter_cfg.c **** 
 252:Generated_Source\PSoC5/cyfitter_cfg.c **** 	/* Configure IMO based on settings from Clock DWR */
 253:Generated_Source\PSoC5/cyfitter_cfg.c **** 	CY_SET_XTND_REG8((void CYFAR *)(CYREG_FASTCLK_IMO_CR), 0x03u);
 254:Generated_Source\PSoC5/cyfitter_cfg.c **** 	CY_SET_XTND_REG8((void CYFAR *)(CYREG_IMO_TR1), (CY_GET_XTND_REG8((void CYFAR *)CYREG_FLSHID_CUST_
 255:Generated_Source\PSoC5/cyfitter_cfg.c **** 
 256:Generated_Source\PSoC5/cyfitter_cfg.c **** 	/* Configure PLL based on settings from Clock DWR */
 257:Generated_Source\PSoC5/cyfitter_cfg.c **** 	CY_SET_XTND_REG16((void CYFAR *)(CYREG_FASTCLK_PLL_P), 0x0008u);
 258:Generated_Source\PSoC5/cyfitter_cfg.c **** 	CY_SET_XTND_REG16((void CYFAR *)(CYREG_FASTCLK_PLL_CFG0), 0x1251u);
 259:Generated_Source\PSoC5/cyfitter_cfg.c **** 	/* Wait up to 250us for the PLL to lock */
 260:Generated_Source\PSoC5/cyfitter_cfg.c **** 	pllLock = 0u;
 261:Generated_Source\PSoC5/cyfitter_cfg.c **** 	for (timeout = 250u / 10u; (timeout > 0u) && (pllLock != 0x03u); timeout--)
 262:Generated_Source\PSoC5/cyfitter_cfg.c **** 	{ 
 263:Generated_Source\PSoC5/cyfitter_cfg.c **** 		pllLock = 0x03u & ((uint8)((uint8)pllLock << 1) | ((CY_GET_XTND_REG8((void CYFAR *)CYREG_FASTCLK_
 264:Generated_Source\PSoC5/cyfitter_cfg.c **** 		CyDelayCycles(10u * 48u); /* Delay 10us based on 48MHz clock */
 265:Generated_Source\PSoC5/cyfitter_cfg.c **** 	}
 266:Generated_Source\PSoC5/cyfitter_cfg.c **** 	/* If we ran out of time the PLL didn't lock so go to the error function */
 267:Generated_Source\PSoC5/cyfitter_cfg.c **** 	if (timeout == 0u)
 268:Generated_Source\PSoC5/cyfitter_cfg.c **** 	{
 269:Generated_Source\PSoC5/cyfitter_cfg.c **** 		CyClockStartupError(CYCLOCKSTART_PLL_ERROR);
 270:Generated_Source\PSoC5/cyfitter_cfg.c **** 	}
 271:Generated_Source\PSoC5/cyfitter_cfg.c **** 
 272:Generated_Source\PSoC5/cyfitter_cfg.c **** 	/* Configure Bus/Master Clock based on settings from Clock DWR */
 273:Generated_Source\PSoC5/cyfitter_cfg.c **** 	CY_SET_XTND_REG16((void CYFAR *)(CYREG_CLKDIST_MSTR0), 0x0100u);
ARM GAS  C:\Users\savajon\AppData\Local\Temp\cciKJ3U7.s 			page 8


 274:Generated_Source\PSoC5/cyfitter_cfg.c **** 	CY_SET_XTND_REG8((void CYFAR *)(CYREG_CLKDIST_MSTR0), 0x07u);
 275:Generated_Source\PSoC5/cyfitter_cfg.c **** 	CY_SET_XTND_REG8((void CYFAR *)(CYREG_CLKDIST_BCFG0), 0x00u);
 276:Generated_Source\PSoC5/cyfitter_cfg.c **** 	CY_SET_XTND_REG8((void CYFAR *)(CYREG_CLKDIST_BCFG2), 0x48u);
 277:Generated_Source\PSoC5/cyfitter_cfg.c **** 	CY_SET_XTND_REG8((void CYFAR *)(CYREG_CLKDIST_MSTR0), 0x00u);
 278:Generated_Source\PSoC5/cyfitter_cfg.c **** 	CY_SET_XTND_REG8((void CYFAR *)(CYREG_CLKDIST_LD), 0x02u);
 279:Generated_Source\PSoC5/cyfitter_cfg.c **** 
 280:Generated_Source\PSoC5/cyfitter_cfg.c **** 	CY_SET_XTND_REG8((void CYFAR *)(CYREG_PM_ACT_CFG2), ((CY_GET_XTND_REG8((void CYFAR *)CYREG_PM_ACT_
 281:Generated_Source\PSoC5/cyfitter_cfg.c **** }
 282:Generated_Source\PSoC5/cyfitter_cfg.c **** 
 283:Generated_Source\PSoC5/cyfitter_cfg.c **** 
 284:Generated_Source\PSoC5/cyfitter_cfg.c **** /* Analog API Functions */
 285:Generated_Source\PSoC5/cyfitter_cfg.c **** 
 286:Generated_Source\PSoC5/cyfitter_cfg.c **** 
 287:Generated_Source\PSoC5/cyfitter_cfg.c **** /*******************************************************************************
 288:Generated_Source\PSoC5/cyfitter_cfg.c **** * Function Name: AnalogSetDefault
 289:Generated_Source\PSoC5/cyfitter_cfg.c **** ********************************************************************************
 290:Generated_Source\PSoC5/cyfitter_cfg.c **** *
 291:Generated_Source\PSoC5/cyfitter_cfg.c **** * Summary:
 292:Generated_Source\PSoC5/cyfitter_cfg.c **** *  Sets up the analog portions of the chip to default values based on chip
 293:Generated_Source\PSoC5/cyfitter_cfg.c **** *  configuration options from the project.
 294:Generated_Source\PSoC5/cyfitter_cfg.c **** *
 295:Generated_Source\PSoC5/cyfitter_cfg.c **** * Parameters:
 296:Generated_Source\PSoC5/cyfitter_cfg.c **** *  void
 297:Generated_Source\PSoC5/cyfitter_cfg.c **** *
 298:Generated_Source\PSoC5/cyfitter_cfg.c **** * Return:
 299:Generated_Source\PSoC5/cyfitter_cfg.c **** *  void
 300:Generated_Source\PSoC5/cyfitter_cfg.c **** *
 301:Generated_Source\PSoC5/cyfitter_cfg.c **** *******************************************************************************/
 302:Generated_Source\PSoC5/cyfitter_cfg.c **** static void AnalogSetDefault(void);
 303:Generated_Source\PSoC5/cyfitter_cfg.c **** static void AnalogSetDefault(void)
 304:Generated_Source\PSoC5/cyfitter_cfg.c **** {
 124              		.loc 1 304 0
 125              		.cfi_startproc
 126              		@ args = 0, pretend = 0, frame = 0
 127              		@ frame_needed = 0, uses_anonymous_args = 0
 128              		@ link register save eliminated.
 305:Generated_Source\PSoC5/cyfitter_cfg.c **** 	uint8 bg_xover_inl_trim = CY_GET_XTND_REG8((void CYFAR *)(CYREG_FLSHID_MFG_CFG_BG_XOVER_INL_TRIM +
 129              		.loc 1 305 0
 130 0000 0C4B     		ldr	r3, .L10
 131 0002 1B78     		ldrb	r3, [r3]	@ zero_extendqisi2
 132 0004 DBB2     		uxtb	r3, r3
 133              	.LVL12:
 306:Generated_Source\PSoC5/cyfitter_cfg.c **** 	CY_SET_XTND_REG8((void CYFAR *)(CYREG_BG_DFT0), (bg_xover_inl_trim & 0x07u));
 134              		.loc 1 306 0
 135 0006 03F00701 		and	r1, r3, #7
 136 000a 0B4A     		ldr	r2, .L10+4
 137 000c 1170     		strb	r1, [r2]
 307:Generated_Source\PSoC5/cyfitter_cfg.c **** 	CY_SET_XTND_REG8((void CYFAR *)(CYREG_BG_DFT1), ((bg_xover_inl_trim >> 4) & 0x0Fu));
 138              		.loc 1 307 0
 139 000e 1B09     		lsrs	r3, r3, #4
 140              	.LVL13:
 141 0010 0132     		adds	r2, r2, #1
 142 0012 1370     		strb	r3, [r2]
 308:Generated_Source\PSoC5/cyfitter_cfg.c **** 	CY_SET_XTND_REG8((void CYFAR *)CYREG_PRT1_AG, 0x10u);
 143              		.loc 1 308 0
 144 0014 1022     		movs	r2, #16
 145 0016 094B     		ldr	r3, .L10+8
ARM GAS  C:\Users\savajon\AppData\Local\Temp\cciKJ3U7.s 			page 9


 146 0018 1A70     		strb	r2, [r3]
 309:Generated_Source\PSoC5/cyfitter_cfg.c **** 	CY_SET_XTND_REG8((void CYFAR *)CYREG_CAPSR_CFG0, 0x00u);
 147              		.loc 1 309 0
 148 001a 0022     		movs	r2, #0
 149 001c 03F25573 		addw	r3, r3, #1877
 150 0020 1A70     		strb	r2, [r3]
 310:Generated_Source\PSoC5/cyfitter_cfg.c **** 	CY_SET_XTND_REG8((void CYFAR *)CYREG_CMP1_SW3, 0x20u);
 151              		.loc 1 310 0
 152 0022 2022     		movs	r2, #32
 153 0024 03F25923 		addw	r3, r3, #601
 154 0028 1A70     		strb	r2, [r3]
 311:Generated_Source\PSoC5/cyfitter_cfg.c **** 	CY_SET_XTND_REG8((void CYFAR *)CYREG_PUMP_CR0, 0x44u);
 155              		.loc 1 311 0
 156 002a 4422     		movs	r2, #68
 157 002c A3F25523 		subw	r3, r3, #597
 158 0030 1A70     		strb	r2, [r3]
 159 0032 7047     		bx	lr
 160              	.L11:
 161              		.align	2
 162              	.L10:
 163 0034 CF010049 		.word	1224737231
 164 0038 6E580040 		.word	1073764462
 165 003c 1D510040 		.word	1073762589
 166              		.cfi_endproc
 167              	.LFE6:
 168              		.size	AnalogSetDefault, .-AnalogSetDefault
 169              		.section	.text.CYMEMZERO,"ax",%progbits
 170              		.align	2
 171              		.thumb
 172              		.thumb_func
 173              		.type	CYMEMZERO, %function
 174              	CYMEMZERO:
 175              	.LFB0:
  78:Generated_Source\PSoC5/cyfitter_cfg.c **** 	(void)memset(s, 0, n);
 176              		.loc 1 78 0
 177              		.cfi_startproc
 178              		@ args = 0, pretend = 0, frame = 0
 179              		@ frame_needed = 0, uses_anonymous_args = 0
 180              	.LVL14:
 181 0000 08B5     		push	{r3, lr}
 182              		.cfi_def_cfa_offset 8
 183              		.cfi_offset 3, -8
 184              		.cfi_offset 14, -4
  79:Generated_Source\PSoC5/cyfitter_cfg.c **** }
 185              		.loc 1 79 0
 186 0002 0A46     		mov	r2, r1
 187 0004 0021     		movs	r1, #0
 188              	.LVL15:
 189 0006 FFF7FEFF 		bl	memset
 190              	.LVL16:
 191 000a 08BD     		pop	{r3, pc}
 192              		.cfi_endproc
 193              	.LFE0:
 194              		.size	CYMEMZERO, .-CYMEMZERO
 195              		.section	.text.ClockSetup,"ax",%progbits
 196              		.align	2
 197              		.thumb
ARM GAS  C:\Users\savajon\AppData\Local\Temp\cciKJ3U7.s 			page 10


 198              		.thumb_func
 199              		.type	ClockSetup, %function
 200              	ClockSetup:
 201              	.LFB5:
 231:Generated_Source\PSoC5/cyfitter_cfg.c **** 	uint32 timeout;
 202              		.loc 1 231 0
 203              		.cfi_startproc
 204              		@ args = 0, pretend = 0, frame = 0
 205              		@ frame_needed = 0, uses_anonymous_args = 0
 206 0000 38B5     		push	{r3, r4, r5, lr}
 207              		.cfi_def_cfa_offset 16
 208              		.cfi_offset 3, -16
 209              		.cfi_offset 4, -12
 210              		.cfi_offset 5, -8
 211              		.cfi_offset 14, -4
 237:Generated_Source\PSoC5/cyfitter_cfg.c **** 	CY_SET_XTND_REG8((void CYFAR *)(CYREG_CLKDIST_DCFG0_CFG0 + 0x2u), 0x18u);
 212              		.loc 1 237 0
 213 0002 0122     		movs	r2, #1
 214 0004 2E4B     		ldr	r3, .L20
 215 0006 1A80     		strh	r2, [r3]	@ movhi
 238:Generated_Source\PSoC5/cyfitter_cfg.c **** 	CY_SET_XTND_REG16((void CYFAR *)(CYREG_CLKDIST_DCFG1_CFG0), 0x0017u);
 216              		.loc 1 238 0
 217 0008 1823     		movs	r3, #24
 218 000a 2E4A     		ldr	r2, .L20+4
 219 000c 1370     		strb	r3, [r2]
 239:Generated_Source\PSoC5/cyfitter_cfg.c **** 	CY_SET_XTND_REG8((void CYFAR *)(CYREG_CLKDIST_DCFG1_CFG0 + 0x2u), 0x18u);
 220              		.loc 1 239 0
 221 000e 1721     		movs	r1, #23
 222 0010 0232     		adds	r2, r2, #2
 223 0012 1180     		strh	r1, [r2]	@ movhi
 240:Generated_Source\PSoC5/cyfitter_cfg.c **** 	CY_SET_XTND_REG16((void CYFAR *)(CYREG_CLKDIST_DCFG2_CFG0), 0x0033u);
 224              		.loc 1 240 0
 225 0014 0232     		adds	r2, r2, #2
 226 0016 1370     		strb	r3, [r2]
 241:Generated_Source\PSoC5/cyfitter_cfg.c **** 	CY_SET_XTND_REG8((void CYFAR *)(CYREG_CLKDIST_DCFG2_CFG0 + 0x2u), 0x18u);
 227              		.loc 1 241 0
 228 0018 3321     		movs	r1, #51
 229 001a 0232     		adds	r2, r2, #2
 230 001c 1180     		strh	r1, [r2]	@ movhi
 242:Generated_Source\PSoC5/cyfitter_cfg.c **** 	CY_SET_XTND_REG16((void CYFAR *)(CYREG_CLKDIST_DCFG3_CFG0), 0x0077u);
 231              		.loc 1 242 0
 232 001e 0232     		adds	r2, r2, #2
 233 0020 1370     		strb	r3, [r2]
 243:Generated_Source\PSoC5/cyfitter_cfg.c **** 	CY_SET_XTND_REG8((void CYFAR *)(CYREG_CLKDIST_DCFG3_CFG0 + 0x2u), 0x18u);
 234              		.loc 1 243 0
 235 0022 7721     		movs	r1, #119
 236 0024 0232     		adds	r2, r2, #2
 237 0026 1180     		strh	r1, [r2]	@ movhi
 244:Generated_Source\PSoC5/cyfitter_cfg.c **** 	CY_SET_XTND_REG16((void CYFAR *)(CYREG_CLKDIST_DCFG4_CFG0), 0x095Fu);
 238              		.loc 1 244 0
 239 0028 0232     		adds	r2, r2, #2
 240 002a 1370     		strb	r3, [r2]
 245:Generated_Source\PSoC5/cyfitter_cfg.c **** 	CY_SET_XTND_REG8((void CYFAR *)(CYREG_CLKDIST_DCFG4_CFG0 + 0x2u), 0x18u);
 241              		.loc 1 245 0
 242 002c 40F65F11 		movw	r1, #2399
 243 0030 0232     		adds	r2, r2, #2
 244 0032 1180     		strh	r1, [r2]	@ movhi
ARM GAS  C:\Users\savajon\AppData\Local\Temp\cciKJ3U7.s 			page 11


 246:Generated_Source\PSoC5/cyfitter_cfg.c **** 
 245              		.loc 1 246 0
 246 0034 0232     		adds	r2, r2, #2
 247 0036 1370     		strb	r3, [r2]
 249:Generated_Source\PSoC5/cyfitter_cfg.c **** 	CY_SET_XTND_REG8((void CYFAR *)(CYREG_CLKDIST_CR), 0x08u);
 248              		.loc 1 249 0
 249 0038 0222     		movs	r2, #2
 250 003a 234B     		ldr	r3, .L20+8
 251 003c 1A70     		strb	r2, [r3]
 250:Generated_Source\PSoC5/cyfitter_cfg.c **** 
 252              		.loc 1 250 0
 253 003e 0822     		movs	r2, #8
 254 0040 4FF04023 		mov	r3, #1073758208
 255 0044 1A70     		strb	r2, [r3]
 253:Generated_Source\PSoC5/cyfitter_cfg.c **** 	CY_SET_XTND_REG8((void CYFAR *)(CYREG_IMO_TR1), (CY_GET_XTND_REG8((void CYFAR *)CYREG_FLSHID_CUST_
 256              		.loc 1 253 0
 257 0046 0321     		movs	r1, #3
 258 0048 03F50073 		add	r3, r3, #512
 259 004c 1970     		strb	r1, [r3]
 254:Generated_Source\PSoC5/cyfitter_cfg.c **** 
 260              		.loc 1 254 0
 261 004e 1F4B     		ldr	r3, .L20+12
 262 0050 1B78     		ldrb	r3, [r3]	@ zero_extendqisi2
 263 0052 DBB2     		uxtb	r3, r3
 264 0054 1E49     		ldr	r1, .L20+16
 265 0056 0B70     		strb	r3, [r1]
 257:Generated_Source\PSoC5/cyfitter_cfg.c **** 	CY_SET_XTND_REG16((void CYFAR *)(CYREG_FASTCLK_PLL_CFG0), 0x1251u);
 266              		.loc 1 257 0
 267 0058 1E4B     		ldr	r3, .L20+20
 268 005a 1A80     		strh	r2, [r3]	@ movhi
 258:Generated_Source\PSoC5/cyfitter_cfg.c **** 	/* Wait up to 250us for the PLL to lock */
 269              		.loc 1 258 0
 270 005c 41F25122 		movw	r2, #4689
 271 0060 023B     		subs	r3, r3, #2
 272 0062 1A80     		strh	r2, [r3]	@ movhi
 273              	.LVL17:
 260:Generated_Source\PSoC5/cyfitter_cfg.c **** 	for (timeout = 250u / 10u; (timeout > 0u) && (pllLock != 0x03u); timeout--)
 274              		.loc 1 260 0
 275 0064 0024     		movs	r4, #0
 261:Generated_Source\PSoC5/cyfitter_cfg.c **** 	{ 
 276              		.loc 1 261 0
 277 0066 1925     		movs	r5, #25
 278 0068 0CE0     		b	.L15
 279              	.LVL18:
 280              	.L17:
 263:Generated_Source\PSoC5/cyfitter_cfg.c **** 		CyDelayCycles(10u * 48u); /* Delay 10us based on 48MHz clock */
 281              		.loc 1 263 0 discriminator 4
 282 006a 1B4B     		ldr	r3, .L20+24
 283 006c 1B78     		ldrb	r3, [r3]	@ zero_extendqisi2
 284 006e 03F00103 		and	r3, r3, #1
 285 0072 43EA4404 		orr	r4, r3, r4, lsl #1
 286              	.LVL19:
 287 0076 04F00304 		and	r4, r4, #3
 288              	.LVL20:
 264:Generated_Source\PSoC5/cyfitter_cfg.c **** 	}
 289              		.loc 1 264 0 discriminator 4
 290 007a 4FF4F070 		mov	r0, #480
ARM GAS  C:\Users\savajon\AppData\Local\Temp\cciKJ3U7.s 			page 12


 291 007e FFF7FEFF 		bl	CyDelayCycles
 292              	.LVL21:
 261:Generated_Source\PSoC5/cyfitter_cfg.c **** 	{ 
 293              		.loc 1 261 0 discriminator 4
 294 0082 013D     		subs	r5, r5, #1
 295              	.LVL22:
 296              	.L15:
 261:Generated_Source\PSoC5/cyfitter_cfg.c **** 	{ 
 297              		.loc 1 261 0 is_stmt 0 discriminator 1
 298 0084 0DB1     		cbz	r5, .L16
 261:Generated_Source\PSoC5/cyfitter_cfg.c **** 	{ 
 299              		.loc 1 261 0 discriminator 3
 300 0086 032C     		cmp	r4, #3
 301 0088 EFD1     		bne	.L17
 302              	.L16:
 267:Generated_Source\PSoC5/cyfitter_cfg.c **** 	{
 303              		.loc 1 267 0 is_stmt 1
 304 008a 15B9     		cbnz	r5, .L18
 269:Generated_Source\PSoC5/cyfitter_cfg.c **** 	}
 305              		.loc 1 269 0
 306 008c 0320     		movs	r0, #3
 307 008e FFF7FEFF 		bl	CyClockStartupError
 308              	.LVL23:
 309              	.L18:
 273:Generated_Source\PSoC5/cyfitter_cfg.c **** 	CY_SET_XTND_REG8((void CYFAR *)(CYREG_CLKDIST_MSTR0), 0x07u);
 310              		.loc 1 273 0
 311 0092 124B     		ldr	r3, .L20+28
 312 0094 4FF48072 		mov	r2, #256
 313 0098 1A80     		strh	r2, [r3]	@ movhi
 274:Generated_Source\PSoC5/cyfitter_cfg.c **** 	CY_SET_XTND_REG8((void CYFAR *)(CYREG_CLKDIST_BCFG0), 0x00u);
 314              		.loc 1 274 0
 315 009a 0722     		movs	r2, #7
 316 009c 1A70     		strb	r2, [r3]
 275:Generated_Source\PSoC5/cyfitter_cfg.c **** 	CY_SET_XTND_REG8((void CYFAR *)(CYREG_CLKDIST_BCFG2), 0x48u);
 317              		.loc 1 275 0
 318 009e 0022     		movs	r2, #0
 319 00a0 0F49     		ldr	r1, .L20+32
 320 00a2 0A70     		strb	r2, [r1]
 276:Generated_Source\PSoC5/cyfitter_cfg.c **** 	CY_SET_XTND_REG8((void CYFAR *)(CYREG_CLKDIST_MSTR0), 0x00u);
 321              		.loc 1 276 0
 322 00a4 4820     		movs	r0, #72
 323 00a6 0231     		adds	r1, r1, #2
 324 00a8 0870     		strb	r0, [r1]
 277:Generated_Source\PSoC5/cyfitter_cfg.c **** 	CY_SET_XTND_REG8((void CYFAR *)(CYREG_CLKDIST_LD), 0x02u);
 325              		.loc 1 277 0
 326 00aa 1A70     		strb	r2, [r3]
 278:Generated_Source\PSoC5/cyfitter_cfg.c **** 
 327              		.loc 1 278 0
 328 00ac 0222     		movs	r2, #2
 329 00ae 033B     		subs	r3, r3, #3
 330 00b0 1A70     		strb	r2, [r3]
 280:Generated_Source\PSoC5/cyfitter_cfg.c **** }
 331              		.loc 1 280 0
 332 00b2 0C4A     		ldr	r2, .L20+36
 333 00b4 1378     		ldrb	r3, [r2]	@ zero_extendqisi2
 334 00b6 43F01F03 		orr	r3, r3, #31
 335 00ba 1370     		strb	r3, [r2]
ARM GAS  C:\Users\savajon\AppData\Local\Temp\cciKJ3U7.s 			page 13


 336 00bc 38BD     		pop	{r3, r4, r5, pc}
 337              	.LVL24:
 338              	.L21:
 339 00be 00BF     		.align	2
 340              	.L20:
 341 00c0 80400040 		.word	1073758336
 342 00c4 82400040 		.word	1073758338
 343 00c8 00430040 		.word	1073758976
 344 00cc 08010049 		.word	1224737032
 345 00d0 A1460040 		.word	1073759905
 346 00d4 22420040 		.word	1073758754
 347 00d8 25420040 		.word	1073758757
 348 00dc 04400040 		.word	1073758212
 349 00e0 06400040 		.word	1073758214
 350 00e4 A2430040 		.word	1073759138
 351              		.cfi_endproc
 352              	.LFE5:
 353              		.size	ClockSetup, .-ClockSetup
 354              		.section	.text.CYCONFIGCPY,"ax",%progbits
 355              		.align	2
 356              		.thumb
 357              		.thumb_func
 358              		.type	CYCONFIGCPY, %function
 359              	CYCONFIGCPY:
 360              	.LFB1:
  85:Generated_Source\PSoC5/cyfitter_cfg.c **** 	(void)memcpy(dest, src, n);
 361              		.loc 1 85 0
 362              		.cfi_startproc
 363              		@ args = 0, pretend = 0, frame = 0
 364              		@ frame_needed = 0, uses_anonymous_args = 0
 365              	.LVL25:
 366 0000 08B5     		push	{r3, lr}
 367              		.cfi_def_cfa_offset 8
 368              		.cfi_offset 3, -8
 369              		.cfi_offset 14, -4
  86:Generated_Source\PSoC5/cyfitter_cfg.c **** }
 370              		.loc 1 86 0
 371 0002 FFF7FEFF 		bl	memcpy
 372              	.LVL26:
 373 0006 08BD     		pop	{r3, pc}
 374              		.cfi_endproc
 375              	.LFE1:
 376              		.size	CYCONFIGCPY, .-CYCONFIGCPY
 377              		.section	.text.SetAnalogRoutingPumps,"ax",%progbits
 378              		.align	2
 379              		.global	SetAnalogRoutingPumps
 380              		.thumb
 381              		.thumb_func
 382              		.type	SetAnalogRoutingPumps, %function
 383              	SetAnalogRoutingPumps:
 384              	.LFB7:
 312:Generated_Source\PSoC5/cyfitter_cfg.c **** }
 313:Generated_Source\PSoC5/cyfitter_cfg.c **** 
 314:Generated_Source\PSoC5/cyfitter_cfg.c **** 
 315:Generated_Source\PSoC5/cyfitter_cfg.c **** /*******************************************************************************
 316:Generated_Source\PSoC5/cyfitter_cfg.c **** * Function Name: SetAnalogRoutingPumps
 317:Generated_Source\PSoC5/cyfitter_cfg.c **** ********************************************************************************
ARM GAS  C:\Users\savajon\AppData\Local\Temp\cciKJ3U7.s 			page 14


 318:Generated_Source\PSoC5/cyfitter_cfg.c **** *
 319:Generated_Source\PSoC5/cyfitter_cfg.c **** * Summary:
 320:Generated_Source\PSoC5/cyfitter_cfg.c **** * Enables or disables the analog pumps feeding analog routing switches.
 321:Generated_Source\PSoC5/cyfitter_cfg.c **** * Intended to be called at startup, based on the Vdda system configuration;
 322:Generated_Source\PSoC5/cyfitter_cfg.c **** * may be called during operation when the user informs us that the Vdda voltage
 323:Generated_Source\PSoC5/cyfitter_cfg.c **** * crossed the pump threshold.
 324:Generated_Source\PSoC5/cyfitter_cfg.c **** *
 325:Generated_Source\PSoC5/cyfitter_cfg.c **** * Parameters:
 326:Generated_Source\PSoC5/cyfitter_cfg.c **** *  enabled - 1 to enable the pumps, 0 to disable the pumps
 327:Generated_Source\PSoC5/cyfitter_cfg.c **** *
 328:Generated_Source\PSoC5/cyfitter_cfg.c **** * Return:
 329:Generated_Source\PSoC5/cyfitter_cfg.c **** *  void
 330:Generated_Source\PSoC5/cyfitter_cfg.c **** *
 331:Generated_Source\PSoC5/cyfitter_cfg.c **** *******************************************************************************/
 332:Generated_Source\PSoC5/cyfitter_cfg.c **** void SetAnalogRoutingPumps(uint8 enabled)
 333:Generated_Source\PSoC5/cyfitter_cfg.c **** {
 385              		.loc 1 333 0
 386              		.cfi_startproc
 387              		@ args = 0, pretend = 0, frame = 0
 388              		@ frame_needed = 0, uses_anonymous_args = 0
 389              		@ link register save eliminated.
 390              	.LVL27:
 334:Generated_Source\PSoC5/cyfitter_cfg.c **** 	uint8 regValue = CY_GET_XTND_REG8((void CYFAR *)CYREG_PUMP_CR0);
 391              		.loc 1 334 0
 392 0000 054B     		ldr	r3, .L27
 393 0002 1B78     		ldrb	r3, [r3]	@ zero_extendqisi2
 394 0004 DBB2     		uxtb	r3, r3
 395              	.LVL28:
 335:Generated_Source\PSoC5/cyfitter_cfg.c **** 	if (enabled != 0u)
 396              		.loc 1 335 0
 397 0006 10B1     		cbz	r0, .L25
 336:Generated_Source\PSoC5/cyfitter_cfg.c **** 	{
 337:Generated_Source\PSoC5/cyfitter_cfg.c **** 		regValue |= 0x22u;
 398              		.loc 1 337 0
 399 0008 43F02203 		orr	r3, r3, #34
 400              	.LVL29:
 401 000c 01E0     		b	.L26
 402              	.L25:
 338:Generated_Source\PSoC5/cyfitter_cfg.c **** 	}
 339:Generated_Source\PSoC5/cyfitter_cfg.c **** 	else
 340:Generated_Source\PSoC5/cyfitter_cfg.c **** 	{
 341:Generated_Source\PSoC5/cyfitter_cfg.c **** 		regValue &= (uint8)~0x22u;
 403              		.loc 1 341 0
 404 000e 03F0DD03 		and	r3, r3, #221
 405              	.LVL30:
 406              	.L26:
 342:Generated_Source\PSoC5/cyfitter_cfg.c **** 	}
 343:Generated_Source\PSoC5/cyfitter_cfg.c **** 	CY_SET_XTND_REG8((void CYFAR *)CYREG_PUMP_CR0, regValue);
 407              		.loc 1 343 0
 408 0012 014A     		ldr	r2, .L27
 409 0014 1370     		strb	r3, [r2]
 410 0016 7047     		bx	lr
 411              	.L28:
 412              		.align	2
 413              	.L27:
 414 0018 76580040 		.word	1073764470
 415              		.cfi_endproc
ARM GAS  C:\Users\savajon\AppData\Local\Temp\cciKJ3U7.s 			page 15


 416              	.LFE7:
 417              		.size	SetAnalogRoutingPumps, .-SetAnalogRoutingPumps
 418              		.section	.text.CapSense_CSD_AMuxCH0_Set,"ax",%progbits
 419              		.align	2
 420              		.global	CapSense_CSD_AMuxCH0_Set
 421              		.thumb
 422              		.thumb_func
 423              		.type	CapSense_CSD_AMuxCH0_Set, %function
 424              	CapSense_CSD_AMuxCH0_Set:
 425              	.LFB8:
 344:Generated_Source\PSoC5/cyfitter_cfg.c **** }
 345:Generated_Source\PSoC5/cyfitter_cfg.c **** 
 346:Generated_Source\PSoC5/cyfitter_cfg.c **** 
 347:Generated_Source\PSoC5/cyfitter_cfg.c **** #define CY_AMUX_UNUSED CYREG_BOOST_SR
 348:Generated_Source\PSoC5/cyfitter_cfg.c **** /* This is an implementation detail of the AMux. Code that depends on it may be
 349:Generated_Source\PSoC5/cyfitter_cfg.c ****    incompatible with other versions of PSoC Creator. */
 350:Generated_Source\PSoC5/cyfitter_cfg.c **** uint8 CYXDATA * const CYCODE CapSense_CSD_AMuxCH0__addrTable[5] = {
 351:Generated_Source\PSoC5/cyfitter_cfg.c **** 	(uint8 CYXDATA *)CYREG_PRT15_AMUX, 
 352:Generated_Source\PSoC5/cyfitter_cfg.c **** 	(uint8 CYXDATA *)CYREG_PRT15_AMUX, 
 353:Generated_Source\PSoC5/cyfitter_cfg.c **** 	(uint8 CYXDATA *)CYREG_PRT1_AMUX, 
 354:Generated_Source\PSoC5/cyfitter_cfg.c **** 	(uint8 CYXDATA *)CYREG_CMP1_SW3, 
 355:Generated_Source\PSoC5/cyfitter_cfg.c **** 	(uint8 CYXDATA *)CYREG_DAC3_SW3, 
 356:Generated_Source\PSoC5/cyfitter_cfg.c **** };
 357:Generated_Source\PSoC5/cyfitter_cfg.c **** 
 358:Generated_Source\PSoC5/cyfitter_cfg.c **** /* This is an implementation detail of the AMux. Code that depends on it may be
 359:Generated_Source\PSoC5/cyfitter_cfg.c ****    incompatible with other versions of PSoC Creator. */
 360:Generated_Source\PSoC5/cyfitter_cfg.c **** const uint8 CYCODE CapSense_CSD_AMuxCH0__maskTable[5] = {
 361:Generated_Source\PSoC5/cyfitter_cfg.c **** 	0x02u, 
 362:Generated_Source\PSoC5/cyfitter_cfg.c **** 	0x01u, 
 363:Generated_Source\PSoC5/cyfitter_cfg.c **** 	0x10u, 
 364:Generated_Source\PSoC5/cyfitter_cfg.c **** 	0x01u, 
 365:Generated_Source\PSoC5/cyfitter_cfg.c **** 	0x10u, 
 366:Generated_Source\PSoC5/cyfitter_cfg.c **** };
 367:Generated_Source\PSoC5/cyfitter_cfg.c **** 
 368:Generated_Source\PSoC5/cyfitter_cfg.c **** /*******************************************************************************
 369:Generated_Source\PSoC5/cyfitter_cfg.c **** * Function Name: CapSense_CSD_AMuxCH0_Set
 370:Generated_Source\PSoC5/cyfitter_cfg.c **** ********************************************************************************
 371:Generated_Source\PSoC5/cyfitter_cfg.c **** * Summary:
 372:Generated_Source\PSoC5/cyfitter_cfg.c **** *  This function is used to set a particular channel as active on the AMux.
 373:Generated_Source\PSoC5/cyfitter_cfg.c **** *
 374:Generated_Source\PSoC5/cyfitter_cfg.c **** * Parameters:  
 375:Generated_Source\PSoC5/cyfitter_cfg.c **** *   channel - The mux channel input to set as active
 376:Generated_Source\PSoC5/cyfitter_cfg.c **** *
 377:Generated_Source\PSoC5/cyfitter_cfg.c **** * Return:
 378:Generated_Source\PSoC5/cyfitter_cfg.c **** *   void
 379:Generated_Source\PSoC5/cyfitter_cfg.c **** *
 380:Generated_Source\PSoC5/cyfitter_cfg.c **** *******************************************************************************/
 381:Generated_Source\PSoC5/cyfitter_cfg.c **** void CapSense_CSD_AMuxCH0_Set(uint8 channel)
 382:Generated_Source\PSoC5/cyfitter_cfg.c **** {
 426              		.loc 1 382 0
 427              		.cfi_startproc
 428              		@ args = 0, pretend = 0, frame = 0
 429              		@ frame_needed = 0, uses_anonymous_args = 0
 430              		@ link register save eliminated.
 431              	.LVL31:
 383:Generated_Source\PSoC5/cyfitter_cfg.c **** 	if (channel < 5)
 432              		.loc 1 383 0
ARM GAS  C:\Users\savajon\AppData\Local\Temp\cciKJ3U7.s 			page 16


 433 0000 0428     		cmp	r0, #4
 434 0002 07D8     		bhi	.L29
 384:Generated_Source\PSoC5/cyfitter_cfg.c **** 	{
 385:Generated_Source\PSoC5/cyfitter_cfg.c **** 		*CapSense_CSD_AMuxCH0__addrTable[channel] |= CapSense_CSD_AMuxCH0__maskTable[channel];
 435              		.loc 1 385 0
 436 0004 044B     		ldr	r3, .L31
 437 0006 53F82020 		ldr	r2, [r3, r0, lsl #2]
 438 000a 1844     		add	r0, r0, r3
 439              	.LVL32:
 440 000c 017D     		ldrb	r1, [r0, #20]	@ zero_extendqisi2
 441 000e 1378     		ldrb	r3, [r2]	@ zero_extendqisi2
 442 0010 0B43     		orrs	r3, r3, r1
 443 0012 1370     		strb	r3, [r2]
 444              	.L29:
 445 0014 7047     		bx	lr
 446              	.L32:
 447 0016 00BF     		.align	2
 448              	.L31:
 449 0018 00000000 		.word	.LANCHOR0
 450              		.cfi_endproc
 451              	.LFE8:
 452              		.size	CapSense_CSD_AMuxCH0_Set, .-CapSense_CSD_AMuxCH0_Set
 453              		.section	.text.CapSense_CSD_AMuxCH0_Unset,"ax",%progbits
 454              		.align	2
 455              		.global	CapSense_CSD_AMuxCH0_Unset
 456              		.thumb
 457              		.thumb_func
 458              		.type	CapSense_CSD_AMuxCH0_Unset, %function
 459              	CapSense_CSD_AMuxCH0_Unset:
 460              	.LFB9:
 386:Generated_Source\PSoC5/cyfitter_cfg.c **** 	}
 387:Generated_Source\PSoC5/cyfitter_cfg.c **** }
 388:Generated_Source\PSoC5/cyfitter_cfg.c **** 
 389:Generated_Source\PSoC5/cyfitter_cfg.c **** /*******************************************************************************
 390:Generated_Source\PSoC5/cyfitter_cfg.c **** * Function Name: CapSense_CSD_AMuxCH0_Unset
 391:Generated_Source\PSoC5/cyfitter_cfg.c **** ********************************************************************************
 392:Generated_Source\PSoC5/cyfitter_cfg.c **** * Summary:
 393:Generated_Source\PSoC5/cyfitter_cfg.c **** *  This function is used to clear a particular channel from being active on the
 394:Generated_Source\PSoC5/cyfitter_cfg.c **** *  AMux.
 395:Generated_Source\PSoC5/cyfitter_cfg.c **** *
 396:Generated_Source\PSoC5/cyfitter_cfg.c **** * Parameters:  
 397:Generated_Source\PSoC5/cyfitter_cfg.c **** *   channel - The mux channel input to mark inactive
 398:Generated_Source\PSoC5/cyfitter_cfg.c **** *
 399:Generated_Source\PSoC5/cyfitter_cfg.c **** * Return:
 400:Generated_Source\PSoC5/cyfitter_cfg.c **** *   void
 401:Generated_Source\PSoC5/cyfitter_cfg.c **** *
 402:Generated_Source\PSoC5/cyfitter_cfg.c **** *******************************************************************************/
 403:Generated_Source\PSoC5/cyfitter_cfg.c **** void CapSense_CSD_AMuxCH0_Unset(uint8 channel)
 404:Generated_Source\PSoC5/cyfitter_cfg.c **** {
 461              		.loc 1 404 0
 462              		.cfi_startproc
 463              		@ args = 0, pretend = 0, frame = 0
 464              		@ frame_needed = 0, uses_anonymous_args = 0
 465              		@ link register save eliminated.
 466              	.LVL33:
 405:Generated_Source\PSoC5/cyfitter_cfg.c **** 	if (channel < 5)
 467              		.loc 1 405 0
ARM GAS  C:\Users\savajon\AppData\Local\Temp\cciKJ3U7.s 			page 17


 468 0000 0428     		cmp	r0, #4
 469 0002 08D8     		bhi	.L33
 406:Generated_Source\PSoC5/cyfitter_cfg.c **** 	{
 407:Generated_Source\PSoC5/cyfitter_cfg.c **** 		*CapSense_CSD_AMuxCH0__addrTable[channel] &= (uint8)~CapSense_CSD_AMuxCH0__maskTable[channel];
 470              		.loc 1 407 0
 471 0004 044B     		ldr	r3, .L35
 472 0006 53F82020 		ldr	r2, [r3, r0, lsl #2]
 473 000a 1844     		add	r0, r0, r3
 474              	.LVL34:
 475 000c 017D     		ldrb	r1, [r0, #20]	@ zero_extendqisi2
 476 000e 1378     		ldrb	r3, [r2]	@ zero_extendqisi2
 477 0010 23EA0103 		bic	r3, r3, r1
 478 0014 1370     		strb	r3, [r2]
 479              	.L33:
 480 0016 7047     		bx	lr
 481              	.L36:
 482              		.align	2
 483              	.L35:
 484 0018 00000000 		.word	.LANCHOR0
 485              		.cfi_endproc
 486              	.LFE9:
 487              		.size	CapSense_CSD_AMuxCH0_Unset, .-CapSense_CSD_AMuxCH0_Unset
 488              		.section	.text.cyfitter_cfg,"ax",%progbits
 489              		.align	2
 490              		.global	cyfitter_cfg
 491              		.thumb
 492              		.thumb_func
 493              		.type	cyfitter_cfg, %function
 494              	cyfitter_cfg:
 495              	.LFB10:
 408:Generated_Source\PSoC5/cyfitter_cfg.c **** 	}
 409:Generated_Source\PSoC5/cyfitter_cfg.c **** }
 410:Generated_Source\PSoC5/cyfitter_cfg.c **** 
 411:Generated_Source\PSoC5/cyfitter_cfg.c **** 
 412:Generated_Source\PSoC5/cyfitter_cfg.c **** 
 413:Generated_Source\PSoC5/cyfitter_cfg.c **** /*******************************************************************************
 414:Generated_Source\PSoC5/cyfitter_cfg.c **** * Function Name: cyfitter_cfg
 415:Generated_Source\PSoC5/cyfitter_cfg.c **** ********************************************************************************
 416:Generated_Source\PSoC5/cyfitter_cfg.c **** * Summary:
 417:Generated_Source\PSoC5/cyfitter_cfg.c **** *  This function is called by the start-up code for the selected device. It
 418:Generated_Source\PSoC5/cyfitter_cfg.c **** *  performs all of the necessary device configuration based on the design
 419:Generated_Source\PSoC5/cyfitter_cfg.c **** *  settings.  This includes settings from the Design Wide Resources (DWR) such
 420:Generated_Source\PSoC5/cyfitter_cfg.c **** *  as Clocks and Pins as well as any component configuration that is necessary.
 421:Generated_Source\PSoC5/cyfitter_cfg.c **** *
 422:Generated_Source\PSoC5/cyfitter_cfg.c **** * Parameters:
 423:Generated_Source\PSoC5/cyfitter_cfg.c **** *   void
 424:Generated_Source\PSoC5/cyfitter_cfg.c **** *
 425:Generated_Source\PSoC5/cyfitter_cfg.c **** * Return:
 426:Generated_Source\PSoC5/cyfitter_cfg.c **** *   void
 427:Generated_Source\PSoC5/cyfitter_cfg.c **** *
 428:Generated_Source\PSoC5/cyfitter_cfg.c **** *******************************************************************************/
 429:Generated_Source\PSoC5/cyfitter_cfg.c **** 
 430:Generated_Source\PSoC5/cyfitter_cfg.c **** void cyfitter_cfg(void)
 431:Generated_Source\PSoC5/cyfitter_cfg.c **** {
 496              		.loc 1 431 0
 497              		.cfi_startproc
 498              		@ args = 0, pretend = 0, frame = 0
ARM GAS  C:\Users\savajon\AppData\Local\Temp\cciKJ3U7.s 			page 18


 499              		@ frame_needed = 0, uses_anonymous_args = 0
 500 0000 38B5     		push	{r3, r4, r5, lr}
 501              		.cfi_def_cfa_offset 16
 502              		.cfi_offset 3, -16
 503              		.cfi_offset 4, -12
 504              		.cfi_offset 5, -8
 505              		.cfi_offset 14, -4
 432:Generated_Source\PSoC5/cyfitter_cfg.c **** #ifdef CYGlobalIntDisable
 433:Generated_Source\PSoC5/cyfitter_cfg.c **** 	/* Disable interrupts by default. Let user enable if/when they want. */
 434:Generated_Source\PSoC5/cyfitter_cfg.c **** 	CYGlobalIntDisable
 506              		.loc 1 434 0
 507              		.syntax unified
 508              	@ 434 "Generated_Source\PSoC5\cyfitter_cfg.c" 1
 509 0002 72B6     		CPSID   i
 510              	@ 0 "" 2
 435:Generated_Source\PSoC5/cyfitter_cfg.c **** #endif
 436:Generated_Source\PSoC5/cyfitter_cfg.c **** 
 437:Generated_Source\PSoC5/cyfitter_cfg.c **** 	/* Enable/Disable Debug functionality based on settings from System DWR */
 438:Generated_Source\PSoC5/cyfitter_cfg.c **** 	CY_SET_XTND_REG8((void CYFAR *)CYREG_MLOGIC_DEBUG, (CY_GET_XTND_REG8((void CYFAR *)CYREG_MLOGIC_DE
 511              		.loc 1 438 0
 512              		.thumb
 513              		.syntax unified
 514 0004 3E4A     		ldr	r2, .L43
 515 0006 1378     		ldrb	r3, [r2]	@ zero_extendqisi2
 516 0008 43F00403 		orr	r3, r3, #4
 517 000c 1370     		strb	r3, [r2]
 518              	.LVL35:
 519              	.LBB3:
 439:Generated_Source\PSoC5/cyfitter_cfg.c **** 
 440:Generated_Source\PSoC5/cyfitter_cfg.c **** 	{
 441:Generated_Source\PSoC5/cyfitter_cfg.c **** 
 442:Generated_Source\PSoC5/cyfitter_cfg.c **** 		CYPACKED typedef struct {
 443:Generated_Source\PSoC5/cyfitter_cfg.c **** 			void CYFAR *address;
 444:Generated_Source\PSoC5/cyfitter_cfg.c **** 			uint16 size;
 445:Generated_Source\PSoC5/cyfitter_cfg.c **** 		} CYPACKED_ATTR cfg_memset_t;
 446:Generated_Source\PSoC5/cyfitter_cfg.c **** 
 447:Generated_Source\PSoC5/cyfitter_cfg.c **** 
 448:Generated_Source\PSoC5/cyfitter_cfg.c **** 		CYPACKED typedef struct {
 449:Generated_Source\PSoC5/cyfitter_cfg.c **** 			void CYFAR *dest;
 450:Generated_Source\PSoC5/cyfitter_cfg.c **** 			const void CYFAR *src;
 451:Generated_Source\PSoC5/cyfitter_cfg.c **** 			uint16 size;
 452:Generated_Source\PSoC5/cyfitter_cfg.c **** 		} CYPACKED_ATTR cfg_memcpy_t;
 453:Generated_Source\PSoC5/cyfitter_cfg.c **** 
 454:Generated_Source\PSoC5/cyfitter_cfg.c **** 		static const cfg_memset_t CYCODE cfg_memset_list[] = {
 455:Generated_Source\PSoC5/cyfitter_cfg.c **** 			/* address, size */
 456:Generated_Source\PSoC5/cyfitter_cfg.c **** 			{(void CYFAR *)(CYREG_PRT3_DR), 64u},
 457:Generated_Source\PSoC5/cyfitter_cfg.c **** 			{(void CYFAR *)(CYDEV_UCFG_B0_P0_U0_BASE), 4096u},
 458:Generated_Source\PSoC5/cyfitter_cfg.c **** 			{(void CYFAR *)(CYDEV_UCFG_B1_P2_U0_BASE), 1664u},
 459:Generated_Source\PSoC5/cyfitter_cfg.c **** 			{(void CYFAR *)(CYDEV_UCFG_B1_P5_ROUTE_BASE), 256u},
 460:Generated_Source\PSoC5/cyfitter_cfg.c **** 			{(void CYFAR *)(CYDEV_UCFG_DSI0_BASE), 2560u},
 461:Generated_Source\PSoC5/cyfitter_cfg.c **** 			{(void CYFAR *)(CYDEV_UCFG_DSI12_BASE), 512u},
 462:Generated_Source\PSoC5/cyfitter_cfg.c **** 			{(void CYFAR *)(CYREG_BCTL0_MDCLK_EN), 32u},
 463:Generated_Source\PSoC5/cyfitter_cfg.c **** 		};
 464:Generated_Source\PSoC5/cyfitter_cfg.c **** 
 465:Generated_Source\PSoC5/cyfitter_cfg.c **** 		static const cfg_memcpy_t CYCODE cfg_memcpy_list [] = {
 466:Generated_Source\PSoC5/cyfitter_cfg.c **** 			/* dest, src, size */
 467:Generated_Source\PSoC5/cyfitter_cfg.c **** 			{(void CYFAR *)(CYDEV_UCFG_B1_P5_U1_BASE), BS_UDB_0_0_1_CONFIG_VAL, 128u},
ARM GAS  C:\Users\savajon\AppData\Local\Temp\cciKJ3U7.s 			page 19


 468:Generated_Source\PSoC5/cyfitter_cfg.c **** 		};
 469:Generated_Source\PSoC5/cyfitter_cfg.c **** 
 470:Generated_Source\PSoC5/cyfitter_cfg.c **** 		uint8 CYDATA i;
 471:Generated_Source\PSoC5/cyfitter_cfg.c **** 
 472:Generated_Source\PSoC5/cyfitter_cfg.c **** 		/* Zero out critical memory blocks before beginning configuration */
 473:Generated_Source\PSoC5/cyfitter_cfg.c **** 		for (i = 0u; i < (sizeof(cfg_memset_list)/sizeof(cfg_memset_list[0])); i++)
 520              		.loc 1 473 0
 521 000e 0024     		movs	r4, #0
 522 0010 0BE0     		b	.L38
 523              	.LVL36:
 524              	.L39:
 525              	.LBB4:
 474:Generated_Source\PSoC5/cyfitter_cfg.c **** 		{
 475:Generated_Source\PSoC5/cyfitter_cfg.c **** 			const cfg_memset_t CYCODE * CYDATA ms = &cfg_memset_list[i];
 476:Generated_Source\PSoC5/cyfitter_cfg.c **** 			CYMEMZERO(ms->address, (size_t)(uint32)(ms->size));
 526              		.loc 1 476 0 discriminator 3
 527 0012 3C48     		ldr	r0, .L43+4
 528 0014 6300     		lsls	r3, r4, #1
 529 0016 1A19     		adds	r2, r3, r4
 530 0018 5100     		lsls	r1, r2, #1
 531 001a 0144     		add	r1, r1, r0
 532 001c 0A46     		mov	r2, r1
 533 001e 098C     		ldrh	r1, [r1, #32]
 534 0020 D069     		ldr	r0, [r2, #28]	@ unaligned
 535 0022 FFF7FEFF 		bl	CYMEMZERO
 536              	.LVL37:
 537              	.LBE4:
 473:Generated_Source\PSoC5/cyfitter_cfg.c **** 		{
 538              		.loc 1 473 0 discriminator 3
 539 0026 0134     		adds	r4, r4, #1
 540              	.LVL38:
 541 0028 E4B2     		uxtb	r4, r4
 542              	.LVL39:
 543              	.L38:
 473:Generated_Source\PSoC5/cyfitter_cfg.c **** 		{
 544              		.loc 1 473 0 is_stmt 0 discriminator 1
 545 002a 062C     		cmp	r4, #6
 546 002c F1D9     		bls	.L39
 547 002e 0024     		movs	r4, #0
 548              	.LVL40:
 549 0030 0BE0     		b	.L40
 550              	.LVL41:
 551              	.L41:
 552              	.LBB5:
 477:Generated_Source\PSoC5/cyfitter_cfg.c **** 		}
 478:Generated_Source\PSoC5/cyfitter_cfg.c **** 
 479:Generated_Source\PSoC5/cyfitter_cfg.c **** 		/* Copy device configuration data into registers */
 480:Generated_Source\PSoC5/cyfitter_cfg.c **** 		for (i = 0u; i < (sizeof(cfg_memcpy_list)/sizeof(cfg_memcpy_list[0])); i++)
 481:Generated_Source\PSoC5/cyfitter_cfg.c **** 		{
 482:Generated_Source\PSoC5/cyfitter_cfg.c **** 			const cfg_memcpy_t CYCODE * CYDATA mc = &cfg_memcpy_list[i];
 483:Generated_Source\PSoC5/cyfitter_cfg.c **** 			void * CYDATA destPtr = mc->dest;
 553              		.loc 1 483 0 is_stmt 1 discriminator 3
 554 0032 3449     		ldr	r1, .L43+4
 555 0034 A300     		lsls	r3, r4, #2
 556 0036 1819     		adds	r0, r3, r4
 557 0038 4200     		lsls	r2, r0, #1
 558 003a 8818     		adds	r0, r1, r2
ARM GAS  C:\Users\savajon\AppData\Local\Temp\cciKJ3U7.s 			page 20


 559              	.LVL42:
 484:Generated_Source\PSoC5/cyfitter_cfg.c **** 			const void * CYDATA srcPtr = mc->src;
 485:Generated_Source\PSoC5/cyfitter_cfg.c **** 			uint16 CYDATA numBytes = mc->size;
 486:Generated_Source\PSoC5/cyfitter_cfg.c **** 			CYCONFIGCPY(destPtr, srcPtr, numBytes);
 560              		.loc 1 486 0 discriminator 3
 561 003c 8022     		movs	r2, #128
 562 003e C16C     		ldr	r1, [r0, #76]	@ unaligned
 563              	.LVL43:
 564 0040 806C     		ldr	r0, [r0, #72]	@ unaligned
 565              	.LVL44:
 566 0042 FFF7FEFF 		bl	CYCONFIGCPY
 567              	.LVL45:
 568              	.LBE5:
 480:Generated_Source\PSoC5/cyfitter_cfg.c **** 		{
 569              		.loc 1 480 0 discriminator 3
 570 0046 0134     		adds	r4, r4, #1
 571              	.LVL46:
 572 0048 E4B2     		uxtb	r4, r4
 573              	.LVL47:
 574              	.L40:
 480:Generated_Source\PSoC5/cyfitter_cfg.c **** 		{
 575              		.loc 1 480 0 is_stmt 0 discriminator 1
 576 004a 002C     		cmp	r4, #0
 577 004c F1D0     		beq	.L41
 487:Generated_Source\PSoC5/cyfitter_cfg.c **** 		}
 488:Generated_Source\PSoC5/cyfitter_cfg.c **** 
 489:Generated_Source\PSoC5/cyfitter_cfg.c **** 		cfg_write_bytes32(cy_cfg_addr_table, cy_cfg_data_table);
 578              		.loc 1 489 0 is_stmt 1
 579 004e 2E49     		ldr	r1, .L43+8
 580 0050 4FF09040 		mov	r0, #1207959552
 581 0054 FFF7FEFF 		bl	cfg_write_bytes32
 582              	.LVL48:
 490:Generated_Source\PSoC5/cyfitter_cfg.c **** 
 491:Generated_Source\PSoC5/cyfitter_cfg.c **** 		/* Perform normal device configuration. Order is not critical for these items. */
 492:Generated_Source\PSoC5/cyfitter_cfg.c **** 		CY_SET_XTND_REG16((void CYFAR *)(CYREG_CAPSR_CFG0), 0x0300u);
 583              		.loc 1 492 0
 584 0058 4FF44072 		mov	r2, #768
 585 005c 2B4B     		ldr	r3, .L43+12
 586 005e 1A80     		strh	r2, [r3]	@ movhi
 493:Generated_Source\PSoC5/cyfitter_cfg.c **** 		CY_SET_XTND_REG16((void CYFAR *)(CYREG_LUT1_CR), 0x0103u);
 587              		.loc 1 493 0
 588 0060 40F20312 		movw	r2, #259
 589 0064 283B     		subs	r3, r3, #40
 590 0066 1A80     		strh	r2, [r3]	@ movhi
 494:Generated_Source\PSoC5/cyfitter_cfg.c **** 
 495:Generated_Source\PSoC5/cyfitter_cfg.c **** 		/* B0_P4_U1_CFG24 Starting address: CYDEV_UCFG_B0_P4_U1_CFG24 */
 496:Generated_Source\PSoC5/cyfitter_cfg.c **** 		CY_SET_XTND_REG32((void CYFAR *)(CYREG_B0_P4_U1_CFG24), 0x44040404u);
 591              		.loc 1 496 0
 592 0068 294A     		ldr	r2, .L43+16
 593 006a 03F53043 		add	r3, r3, #45056
 594 006e 8E33     		adds	r3, r3, #142
 595 0070 1A60     		str	r2, [r3]
 497:Generated_Source\PSoC5/cyfitter_cfg.c **** 
 498:Generated_Source\PSoC5/cyfitter_cfg.c **** 		/* Enable digital routing */
 499:Generated_Source\PSoC5/cyfitter_cfg.c **** 		CY_SET_XTND_REG8((void CYFAR *)CYREG_BCTL0_BANK_CTL, CY_GET_XTND_REG8((void CYFAR *)CYREG_BCTL0_B
 596              		.loc 1 499 0
 597 0072 284A     		ldr	r2, .L43+20
ARM GAS  C:\Users\savajon\AppData\Local\Temp\cciKJ3U7.s 			page 21


 598 0074 1378     		ldrb	r3, [r2]	@ zero_extendqisi2
 599 0076 43F00203 		orr	r3, r3, #2
 600 007a 1370     		strb	r3, [r2]
 500:Generated_Source\PSoC5/cyfitter_cfg.c **** 		CY_SET_XTND_REG8((void CYFAR *)CYREG_BCTL1_BANK_CTL, CY_GET_XTND_REG8((void CYFAR *)CYREG_BCTL1_B
 601              		.loc 1 500 0
 602 007c 1032     		adds	r2, r2, #16
 603 007e 1378     		ldrb	r3, [r2]	@ zero_extendqisi2
 604 0080 43F00203 		orr	r3, r3, #2
 605 0084 1370     		strb	r3, [r2]
 501:Generated_Source\PSoC5/cyfitter_cfg.c **** 
 502:Generated_Source\PSoC5/cyfitter_cfg.c **** 		/* Enable UDB array */
 503:Generated_Source\PSoC5/cyfitter_cfg.c **** 		CY_SET_XTND_REG8((void CYFAR *)CYREG_PM_ACT_CFG0, CY_GET_XTND_REG8((void CYFAR *)CYREG_PM_ACT_CFG
 606              		.loc 1 503 0
 607 0086 244C     		ldr	r4, .L43+24
 608              	.LVL49:
 609 0088 2378     		ldrb	r3, [r4]	@ zero_extendqisi2
 610 008a 43F04003 		orr	r3, r3, #64
 611 008e 2370     		strb	r3, [r4]
 504:Generated_Source\PSoC5/cyfitter_cfg.c **** 		CY_SET_XTND_REG8((void CYFAR *)CYREG_PM_AVAIL_CR2, CY_GET_XTND_REG8((void CYFAR *)CYREG_PM_AVAIL_
 612              		.loc 1 504 0
 613 0090 A2F58632 		sub	r2, r2, #68608
 614 0094 513A     		subs	r2, r2, #81
 615 0096 1378     		ldrb	r3, [r2]	@ zero_extendqisi2
 616 0098 43F01003 		orr	r3, r3, #16
 617 009c 1370     		strb	r3, [r2]
 618              	.LBE3:
 505:Generated_Source\PSoC5/cyfitter_cfg.c **** 	}
 506:Generated_Source\PSoC5/cyfitter_cfg.c **** 
 507:Generated_Source\PSoC5/cyfitter_cfg.c **** 
 508:Generated_Source\PSoC5/cyfitter_cfg.c **** 	/* Perform second pass device configuration. These items must be configured in specific order afte
 509:Generated_Source\PSoC5/cyfitter_cfg.c **** 	CYCONFIGCPY((void CYFAR *)(CYREG_PRT0_DM0), (const void CYFAR *)(BS_IOPINS0_0_VAL), 8u);
 619              		.loc 1 509 0
 620 009e 0822     		movs	r2, #8
 621 00a0 1E49     		ldr	r1, .L43+28
 622 00a2 1F48     		ldr	r0, .L43+32
 623 00a4 FFF7FEFF 		bl	CYCONFIGCPY
 624              	.LVL50:
 510:Generated_Source\PSoC5/cyfitter_cfg.c **** 	CYCONFIGCPY((void CYFAR *)(CYREG_PRT12_DR), (const void CYFAR *)(BS_IOPINS0_7_VAL), 10u);
 625              		.loc 1 510 0
 626 00a8 0A22     		movs	r2, #10
 627 00aa 1E49     		ldr	r1, .L43+36
 628 00ac 1E48     		ldr	r0, .L43+40
 629 00ae FFF7FEFF 		bl	CYCONFIGCPY
 630              	.LVL51:
 511:Generated_Source\PSoC5/cyfitter_cfg.c **** 	CYCONFIGCPY((void CYFAR *)(CYREG_PRT15_DM0), (const void CYFAR *)(BS_IOPINS0_8_VAL), 8u);
 631              		.loc 1 511 0
 632 00b2 0822     		movs	r2, #8
 633 00b4 1D49     		ldr	r1, .L43+44
 634 00b6 1E48     		ldr	r0, .L43+48
 635 00b8 FFF7FEFF 		bl	CYCONFIGCPY
 636              	.LVL52:
 512:Generated_Source\PSoC5/cyfitter_cfg.c **** 	CYCONFIGCPY((void CYFAR *)(CYREG_PRT1_DM0), (const void CYFAR *)(BS_IOPINS0_1_VAL), 8u);
 637              		.loc 1 512 0
 638 00bc 0822     		movs	r2, #8
 639 00be 1D49     		ldr	r1, .L43+52
 640 00c0 1D48     		ldr	r0, .L43+56
 641 00c2 FFF7FEFF 		bl	CYCONFIGCPY
ARM GAS  C:\Users\savajon\AppData\Local\Temp\cciKJ3U7.s 			page 22


 642              	.LVL53:
 513:Generated_Source\PSoC5/cyfitter_cfg.c **** 	CYCONFIGCPY((void CYFAR *)(CYREG_PRT2_DM0), (const void CYFAR *)(BS_IOPINS0_2_VAL), 8u);
 643              		.loc 1 513 0
 644 00c6 0822     		movs	r2, #8
 645 00c8 1C49     		ldr	r1, .L43+60
 646 00ca 1D48     		ldr	r0, .L43+64
 647 00cc FFF7FEFF 		bl	CYCONFIGCPY
 648              	.LVL54:
 514:Generated_Source\PSoC5/cyfitter_cfg.c **** 	/* Switch Boost to the precision bandgap reference from its internal reference */
 515:Generated_Source\PSoC5/cyfitter_cfg.c **** 	CY_SET_REG8((void CYXDATA *)CYREG_BOOST_CR2, (CY_GET_REG8((void CYXDATA *)CYREG_BOOST_CR2) | 0x08u
 649              		.loc 1 515 0
 650 00d0 1C4A     		ldr	r2, .L43+68
 651 00d2 1378     		ldrb	r3, [r2]	@ zero_extendqisi2
 652 00d4 43F00803 		orr	r3, r3, #8
 653 00d8 1370     		strb	r3, [r2]
 516:Generated_Source\PSoC5/cyfitter_cfg.c **** 
 517:Generated_Source\PSoC5/cyfitter_cfg.c **** 	/* Set Flash Cycles based on max possible frequency in case a glitch occurs during ClockSetup(). *
 518:Generated_Source\PSoC5/cyfitter_cfg.c **** 	CY_SET_XTND_REG8((void CYFAR *)(CYREG_CACHE_CC_CTL), (((CYDEV_INSTRUCT_CACHE_ENABLED) != 0) ? 0x61
 654              		.loc 1 518 0
 655 00da 1B4D     		ldr	r5, .L43+72
 656 00dc 6123     		movs	r3, #97
 657 00de 2B70     		strb	r3, [r5]
 519:Generated_Source\PSoC5/cyfitter_cfg.c **** 	/* Setup clocks based on selections from Clock DWR */
 520:Generated_Source\PSoC5/cyfitter_cfg.c **** 	ClockSetup();
 658              		.loc 1 520 0
 659 00e0 FFF7FEFF 		bl	ClockSetup
 660              	.LVL55:
 521:Generated_Source\PSoC5/cyfitter_cfg.c **** 	/* Set Flash Cycles based on newly configured 24.00MHz Bus Clock. */
 522:Generated_Source\PSoC5/cyfitter_cfg.c **** 	CY_SET_XTND_REG8((void CYFAR *)(CYREG_CACHE_CC_CTL), (((CYDEV_INSTRUCT_CACHE_ENABLED) != 0) ? 0x81
 661              		.loc 1 522 0
 662 00e4 8123     		movs	r3, #129
 663 00e6 2B70     		strb	r3, [r5]
 523:Generated_Source\PSoC5/cyfitter_cfg.c **** 	CY_SET_XTND_REG8((void CYFAR *)(CYREG_PANTHER_WAITPIPE), 0x01u);
 664              		.loc 1 523 0
 665 00e8 0122     		movs	r2, #1
 666 00ea 184B     		ldr	r3, .L43+76
 667 00ec 1A70     		strb	r2, [r3]
 524:Generated_Source\PSoC5/cyfitter_cfg.c **** 
 525:Generated_Source\PSoC5/cyfitter_cfg.c **** 	/* Perform basic analog initialization to defaults */
 526:Generated_Source\PSoC5/cyfitter_cfg.c **** 	AnalogSetDefault();
 668              		.loc 1 526 0
 669 00ee FFF7FEFF 		bl	AnalogSetDefault
 670              	.LVL56:
 527:Generated_Source\PSoC5/cyfitter_cfg.c **** 
 528:Generated_Source\PSoC5/cyfitter_cfg.c **** 	/* Configure alternate active mode */
 529:Generated_Source\PSoC5/cyfitter_cfg.c **** 	CYCONFIGCPY((void CYFAR *)CYDEV_PM_STBY_BASE, (const void CYFAR *)CYDEV_PM_ACT_BASE, 14u);
 671              		.loc 1 529 0
 672 00f2 0E22     		movs	r2, #14
 673 00f4 2146     		mov	r1, r4
 674 00f6 1648     		ldr	r0, .L43+80
 675 00f8 FFF7FEFF 		bl	CYCONFIGCPY
 676              	.LVL57:
 677 00fc 38BD     		pop	{r3, r4, r5, pc}
 678              	.L44:
 679 00fe 00BF     		.align	2
 680              	.L43:
 681 0100 E8460040 		.word	1073759976
ARM GAS  C:\Users\savajon\AppData\Local\Temp\cciKJ3U7.s 			page 23


 682 0104 00000000 		.word	.LANCHOR0
 683 0108 8C000048 		.word	1207959692
 684 010c 72580040 		.word	1073764466
 685 0110 04040444 		.word	1141113860
 686 0114 03500140 		.word	1073827843
 687 0118 A0430040 		.word	1073759136
 688 011c 94080048 		.word	1207961748
 689 0120 02510040 		.word	1073762562
 690 0124 9C080048 		.word	1207961756
 691 0128 C0510040 		.word	1073762752
 692 012c A8080048 		.word	1207961768
 693 0130 F2510040 		.word	1073762802
 694 0134 B0080048 		.word	1207961776
 695 0138 12510040 		.word	1073762578
 696 013c B8080048 		.word	1207961784
 697 0140 22510040 		.word	1073762594
 698 0144 22430040 		.word	1073759010
 699 0148 00480040 		.word	1073760256
 700 014c 04000840 		.word	1074266116
 701 0150 B0430040 		.word	1073759152
 702              		.cfi_endproc
 703              	.LFE10:
 704              		.size	cyfitter_cfg, .-cyfitter_cfg
 705              		.global	CapSense_CSD_AMuxCH0__maskTable
 706              		.global	CapSense_CSD_AMuxCH0__addrTable
 707              		.section	.rodata
 708              		.align	2
 709              		.set	.LANCHOR0,. + 0
 710              		.type	CapSense_CSD_AMuxCH0__addrTable, %object
 711              		.size	CapSense_CSD_AMuxCH0__addrTable, 20
 712              	CapSense_CSD_AMuxCH0__addrTable:
 713 0000 FC510040 		.word	1073762812
 714 0004 FC510040 		.word	1073762812
 715 0008 1C510040 		.word	1073762588
 716 000c CB5A0040 		.word	1073765067
 717 0010 9B5A0040 		.word	1073765019
 718              		.type	CapSense_CSD_AMuxCH0__maskTable, %object
 719              		.size	CapSense_CSD_AMuxCH0__maskTable, 5
 720              	CapSense_CSD_AMuxCH0__maskTable:
 721 0014 02       		.byte	2
 722 0015 01       		.byte	1
 723 0016 10       		.byte	16
 724 0017 01       		.byte	1
 725 0018 10       		.byte	16
 726 0019 000000   		.space	3
 727              		.type	cfg_memset_list.5032, %object
 728              		.size	cfg_memset_list.5032, 42
 729              	cfg_memset_list.5032:
 730 001c 30510040 		.word	1073762608
 731 0020 4000     		.short	64
 732 0022 00000140 		.4byte	1073807360
 733 0026 0010     		.short	4096
 734 0028 00140140 		.word	1073812480
 735 002c 8006     		.short	1664
 736 002e 001B0140 		.4byte	1073814272
 737 0032 0001     		.short	256
 738 0034 00400140 		.word	1073823744
ARM GAS  C:\Users\savajon\AppData\Local\Temp\cciKJ3U7.s 			page 24


 739 0038 000A     		.short	2560
 740 003a 004C0140 		.4byte	1073826816
 741 003e 0002     		.short	512
 742 0040 00500140 		.word	1073827840
 743 0044 2000     		.short	32
 744 0046 0000     		.space	2
 745              		.type	cfg_memcpy_list.5033, %object
 746              		.size	cfg_memcpy_list.5033, 10
 747              	cfg_memcpy_list.5033:
 748 0048 801A0140 		.word	1073814144
 749 004c 14080048 		.word	1207961620
 750 0050 8000     		.short	128
 751              		.text
 752              	.Letext0:
 753              		.file 2 "c:\\program files (x86)\\cypress\\psoc creator\\4.2\\psoc creator\\import\\gnu\\arm\\5.4.
 754              		.file 3 "Generated_Source\\PSoC5\\cytypes.h"
 755              		.file 4 "Generated_Source\\PSoC5\\CyLib.h"
